:020000040800F2
:100000006804002011C40108EDC30108EFC3010812
:10001000F1C30108F3C30108F5C3010800000000A3
:10002000000000000000000000000000F7C301080D
:10003000F9C3010800000000FBC30108FDC301086B
:100040003DC4010841C4010845C4010849C4010870
:100050004DC4010851C4010855C4010859C4010820
:100060005DC4010861C4010865C4010869C40108D0
:100070006DC4010871C4010875C4010879C4010880
:100080007DC4010881C4010885C4010889C4010830
:100090008DC4010891C4010895C4010899C40108E0
:1000A0009DC40108A1C40108A5C40108A9C4010890
:1000B000ADC40108B1C40108B5C40108B9C4010840
:1000C000BDC40108C1C40108C5C40108C9C40108F0
:1000D000CDC40108D1C40108D5C40108D9C40108A0
:1000E000DDC40108E1C40108E5C40108E9C4010850
:1000F000EDC40108F1C40108F5C40108F9C4010800
:10010000FDC4010801C5010805C5010809C50108AC
:100110000DC5010811C5010815C5010819C501085B
:100120001DC5010821C5010825C5010829C501080B
:100130002DC5010831C5010835C5010839C50108BB
:100140003DC5010841C5010845C5010849C501086B
:100150004DC5010851C5010855C5010859C501081B
:100160005DC5010861C5010865C5010869C50108CB
:100170006DC5010871C5010875C5010800000000C2
:1001800079C501087DC50108007FFFFEFFFFFDFF67
:10019000FFFBFFFFF7FFFFCFFFFF9FFFFF3FFFFECC
:1001A0007FFFFC7FFFF8FFFFF1FFFFE3FFFFC7FFCB
:1001B000FF8FFFFF1FFFFE3FFFFC7FFFF8FFFFF1F8
:1001C000FFFFE3FFFFC7FFFF8FFFFF1FFFFC3FFFA6
:1001D000F87FFFF0FFFFE1FFFFC1FFFF83FFFF0795
:1001E000FFFE0FFFFC1FFFF83FFFF07FFFE0FFFF68
:1001F000C1FFFF83FFFF07FFFE0FFFFC1FFFF83F5C
:10020000FFF07FFFC0FFFF81FFFF03FFFE07FFFC42
:1002100007FFF80FFFF01FFFE03FFFC07FFF80FFE9
:10022000FF01FFFE03FFFC07FFF80FFFF01FFFE0D9
:100230003FFFC07FFF80FFFF0000000000000000C4
:1002400000000000000000000000000000000000AE
:10025000000000000000000000FF000FFF803FFFD3
:10026000C0FFFFC3FFFF87FFFF9FFFFF3FFFFE7F32
:10027000FFFEFFFFFDFFFFFBFFFFF7FFFFEFFFFFAD
:100280009FFFFF1FFFFE3FFFF83FFFE03FFFC03F24
:10029000FE001FF0007FFFC01FFFFBFFFE00FFFFFF
:1002A000DFFFF007FFFCFFFF803FFFE7FFFC00FFE1
:1002B000FF3FFFE007FFF9FFFF003FFFCFFFF8011F
:1002C000FFFE7FFFC00FFFF1FFFE007FFF8FFFE00B
:1002D00003FFFC7FFF001FFFE3FFF800FFFF1FFF8E
:1002E000C007FFF8FFFE003FFFC7FFF001FFFC3F24
:1002F000FF800FFFE1FFFC003FFF0FFFE001FFF871
:100300007FFF000FFFC3FFF8007FFE1FFFC003FF4A
:10031000F07FFE001FFF83FFE000FFFC1FFF0007D0
:10032000FFE0FFF8003FFF07FFC001FFF83FFE00BE
:100330000FFFC1FFF0007FFC0FFF8003FFE07FFC99
:10034000000FFF03FFE0007FF81FFF0003FFC00066
:1003500000000FFF8003FFE0000000007FFE000FA1
:10036000FF8000000001FFF8007FFE000000000792
:10037000FFE001FFF8000000001FFF8007FFC00042
:100380000000007FFC001FFF0000000001FFF000E4
:100390007FFC000000000FFFC003FFF00000000022
:1003A0003FFF000FFFC000000000FFFC003FFE0009
:1003B00000000003FFE000FFF8000000000FFF80D6
:1003C00003FFE0000000007FFE001FFF8000000030
:1003D00001FFF8007FFE0000000007FFE001FFF8CA
:1003E000000000001FFF8007FFC0000000007FFC2E
:1003F000001FFF0000000003FFF0007FFC00000072
:10040000000FFFC003FFF0000000003FFF000FFFE0
:10041000C000000000FFFC003FFE0000000003FFE2
:10042000E000FFF8000000001FFF8003FFE0000075
:1004300000007FFE001FFF8000000001FFF8007F2A
:10044000FE0000000007FFE001FFF000007FFFFF5B
:10045000FFFFFFFFFFFF81FFFFFFFFFFFFFFFFFE2B
:1004600007FFFFFFFFFFFFFFFFF81FFFFFFFFFFF7B
:10047000FFFFFFE07FFFFFFFFFFFFFFFFF81FFFFA9
:10048000FFFFFFFFFFFFFE07FFFFFFFFFFFFFFFF75
:10049000F81FFFFFFFFFFFFFFFFFE07FFFFFFFFFF2
:1004A000FFFFFFFF81FFFFFFFFFFFFFFFFFE07FFD3
:1004B000FFFFFFFFFFFFFFF81FFFFFFFFFFFFFFF33
:1004C000FFE07FFFFFFFFFFFFFFFFF800003FFF064
:1004D00000FFFC000000000FFFC003FFF000000061
:1004E000003FFF000FFF8000000000FFF8003FFE0C
:1004F0000000000003FFE001FFF8000000001FFF04
:100500008007FFE0000000007FFE001FFF8000006A
:100510000001FFF8007FFC0000000007FFC001FFA2
:10052000F0000000001FFF000FFFC000000000FFF0
:10053000FC003FFF0000000003FFF000FFFC000094
:1005400000000FFFC003FFE0000000003FFE000FAF
:10055000FF800003FFFFFFFFFFFFFFFFFE0FFFFF16
:10056000FFFFFFFFFFFFF83FFFFFFFFFFFFFFFFF62
:10057000E0FFFFFFFFFFFFFFFFFF83FFFFFFFFFF26
:10058000FFFFFFFE0FFFFFFFFFFFFFFFFFF83FFF33
:10059000FFFFFFFFFFFFFFE0FFFFFFFFFFFFFFFF8A
:1005A000FF83FFFFFFFFFFFFFFFFFE0FFFFFFFFFC8
:1005B000FFFFFFFFF83FFFFFFFFFFFFFFFFFE0FF31
:1005C000FFFFFFFFFFFFFFFF83FFFFFFFFFFFFFFB7
:1005D000FFFE00001FFF8007FFC0000000007FFC3F
:1005E000001FFF0000000001FFF000FFFC00000002
:1005F0000007FFC003FFF0000000003FFF000FFFF7
:10060000C000000000FFFC003FFF0000000003FFEF
:10061000F000FFF8000000000FFF8007FFE000007F
:1006200000003FFE001FFF8000000001FFF8007F78
:10063000FE0000000007FFE001FFF8000000001FBF
:10064000FF8007FFC0000000007FFC001FFF0000CC
:10065000000001FFF000FFFC0000000007FFC003E6
:10066000FFF0000000003FFF000FFFC0000000008F
:10067000FFFC003FFE0000000003FFF000FFF80059
:100680000000000FFF8007FFE0000000003FFE00B9
:100690001FFF8000000001FFF8007FFE0000000047
:1006A00007FFE001FFF8000000001FFF8007FFC008
:1006B000000000007FFC003FFF0000000001FFF091
:1006C00000FFFC000000000000001FE00000000030
:1006D00000003FC00000000000007F80000000001C
:1006E0000000FF00000000000001FE00000000000C
:1006F0000003FC00000000000007F80000000000FC
:10070000000FF00000000000001FE00000000000EB
:10071000003FC0000000000007FFFFC00000000015
:10072000FFFFFFFC0000001FFFFFFFFF800000FF36
:10073000FFFFFFFFE00007FFFFFFFFFFF8003FFFA5
:10074000FFFFFFFFFC00FFFFFFFFFFFFF803FFFFBE
:10075000FFFFFFFFE00FFFFFFFFFFFFFC03FFFFFB7
:10076000FFFFFFFF80FFFFFFFFFFFFFE03FFFFFF15
:10077000FFFFFFFC07FFFFFFFFFFFFF01FFFFFFF73
:10078000FFFFFFE07FFFFFFFFFFFFFC0FFFFFFFF57
:10079000C7FFFF01FFFFF87F803FFE07FFFFC0FF9D
:1007A0000007F80FFFFF01FE0001F01FFFFC03FC34
:1007B0000000603FFFF807F80000007FFFF00FF037
:1007C000000000FFFFE01FE0000001FFFFC03FC08E
:1007D000000003FFFF807F80000007FFFF80FF0015
:1007E00000000FFFFF81FE0000000FFFFF83FC00F1
:1007F00000001FFFFFC7F80000003FFFFFEFF00001
:1008000000003FFFFFFFE00000007FFFFFFFC00090
:1008100000007FFFFFFF80000000FFFFFFFF0000E0
:100820000000FFFFFFFFC0000000FFFFFFFFE00030
:100830000000FFFFFFFFF0000000FFFFFFFFFC00D4
:100840000000FFFFFFFFFE000000FFFFFFFFFF00B3
:1008500000007FFFFFFFFF8000007FFFFFFFFF80A2
:1008600000003FFFFFFFFFC000001FFFFFFFFFC0B2
:1008700000000FFFFFFFFFC0000007FFFFFFFFC0EA
:10088000000003FFFFFFFFC0000000FFFFFFFFC0ED
:100890000000007FFFFFFFC0000000FFFFFFFF80A0
:1008A000000001FFFFFFFF80000003FFFFFFFF00CC
:1008B000000007F9FFFFFF0000000FF0FFFFFE0040
:1008C00000001FE07FFFFC0000003FC07FFFF8003A
:1008D00000007F807FFFF8000000FF00FFFFF000B6
:1008E0000001FE00FFFFE0000003FC01FFFFC0006D
:1008F0000007F803FFFFE000000FF007FFFFF8001C
:10090000001FE01FFFFDFE00003FC03FFFFBFF8018
:10091000007F80FFFFF7FFE000FF07FFFFEFFFFE14
:1009200001FE3FFFFF9FFFFFF3FFFFFFFF3FFFFFC2
:10093000FFFFFFFFFE7FFFFFFFFFFFFFF8FFFFFF4F
:10094000FFFFFFFFE1FFFFFFFFFFFFFFC3FFFFFF11
:10095000FFFFFFFF07FFFFFFFFFFFFFC0FFFFFFF92
:10096000FFFFFFF01FFFFFFFFFFFFFC03FFFFFFF85
:10097000FFFFFE003FFFFFFFFFFFF8000FFFFFFF3D
:10098000FFFFC00003FFFFFFFFFC0000007FFFFF31
:10099000FFC000000003FFFFF8000000000001FEA0
:1009A00000000000000003FC00000000000007F849
:1009B0000000000000000FF00000000000001FE039
:1009C0000000000000003FC00000000000007F8029
:1009D000000000000000FF00000000000001FE0019
:1009E000000000000003FC00000000000007F80009
:1009F00000000000000FF00000000000001FE000F9
:100A000000000000000000000000000000000000E6
:100A10000003FF000000000000000000000007FFCE
:100A2000FE0000000000FFFE00000001FFFFF800D4
:100A30000000001FFFC00000003FFFFFC0000000DB
:100A400001FFFC00000007FFFFFF000000003FFF68
:100A500080000000FFFFFFF800000007FFF000002B
:100A6000003FFFFFFFC00000007FFF00000003FF0A
:100A7000FFFFFC0000000FFFE00000007FFFFFFF12
:100A8000E0000000FFFE00000007FFFFFFFF000086
:100A9000001FFFC0000000FFFFFFFFF0000001FF8C
:100AA000FC0000000FFFFFFFFF8000003FFF800001
:100AB0000001FFFFFFFFF8000003FFF80000001F28
:100AC000FFF0FFFF8000007FFF00000003FFFE0734
:100AD000FFFC00000FFFE00000003FFFC03FFFC031
:100AE0000000FFFE00000003FFFC03FFFE00001FEC
:100AF000FFC00000003FFF801FFFE00001FFFC007F
:100B0000000003FFF801FFFE00003FFF800000002F
:100B10007FFF801FFFE00003FFF800000007FFF8E1
:100B200001FFFE00007FFF000000007FFF800FFF3D
:100B3000E00007FFF000000007FFF000FFFF0000EB
:100B4000FFFE000000007FFF000FFFF0001FFFC04E
:100B500000000007FFF000FFFF0001FFFC000000A5
:100B6000007FFF000FFFF0003FFF8000000007FF45
:100B7000F000FFFF0003FFF8000000007FFF000F00
:100B8000FFF0007FFF000000000FFFF000FFFF00FC
:100B900007FFF000000000FFFF000FFFF000FFFE66
:100BA0000000000007FFF000FFFF000FFFE0000063
:100BB00000007FFF000FFFF001FFFC0000000007B6
:100BC000FFF000FFFF003FFF80000000007FFF00FC
:100BD0000FFFF003FFF80000000007FFF000FFFF29
:100BE000007FFF00000000007FFF800FFFE007FF95
:100BF000F00000000007FFF801FFFE00FFFE00000C
:100C00007000007FFF801FFFE00FFFE000FFF80093
:100C100007FFF801FFFE01FFFC00FFFFF0003FFFB0
:100C2000801FFFE01FFFC01FFFFF8003FFFC01FFCD
:100C3000FE03FFF803FFFFFE003FFFC03FFFC07F42
:100C4000FF00FFFFFFF003FFFE07FFFC07FFF01FA1
:100C5000FFFFFF801FFFF0FFFFC0FFFE03FFFFFF4E
:100C6000FC01FFFFFFFFF80FFFE07FFFFFFFE00F3A
:100C7000FFFFFFFF81FFFC07FFFFFFFE00FFFFFFFD
:100C8000FFF01FFFC0FFFFFFFFF007FFFFFFFF03A5
:100C9000FFF80FFFFFFFFF007FFFFFFFE03FFF8038
:100CA000FFFFFFFFF803FFFFFFFE07FFF01FFFFB43
:100CB000FFFF801FFFFFFFC0FFFE01FFFE07FFFCDD
:100CC00000FFFFFFF80FFFE03FFFC07FFFC007FFFF
:100CD000FFFF01FFFC03FFFC03FFFC003FFFFFE001
:100CE0001FFFC03FFFC01FFFE000FFFFF803FFF83A
:100CF00003FFF801FFFE0007FFFE003FFF807FFFBC
:100D0000801FFFE0000FFF0007FFF007FFF801FF63
:100D1000FE00000000007FFF007FFF800FFFE0006B
:100D20000000000FFFE007FFF800FFFF00000000D9
:100D300001FFFC007FFF000FFFF0000000001FFF1D
:100D4000C007FFF000FFFF0000000003FFF8007F76
:100D5000FF000FFFF0000000003FFF8007FFF000E2
:100D6000FFFF0000000007FFF0007FFF000FFFF013
:100D7000000000007FFF000FFFF000FFFF000000F9
:100D8000000FFFE000FFFF000FFFF000000000FF7A
:100D9000FE0007FFF000FFFF000000001FFFC00083
:100DA0007FFF000FFFF000000001FFFC0007FFF0D5
:100DB00000FFFF000000003FFF80007FFF000FFFEB
:100DC000F000000007FFF00007FFF000FFFF000049
:100DD00000007FFF00007FFF800FFFF00000000F8A
:100DE000FFE00007FFF800FFFE00000000FFFE002C
:100DF000007FFF801FFFE00000001FFFC00007FF13
:100E0000F801FFFE00000001FFFC00003FFF801F13
:100E1000FFE00000003FFF800003FFF801FFFE003D
:100E2000000003FFF800003FFFC03FFFC0000000CC
:100E30007FFF000003FFFC03FFFC0000000FFFE04A
:100E400000001FFFE07FFFC0000000FFFE00000168
:100E5000FFFF9FFFF80000001FFFC000001FFFFF03
:100E6000FFFF80000001FFFC000000FFFFFFFFF814
:100E70000000003FFF8000000FFFFFFFFF000000A9
:100E800003FFF80000007FFFFFFFE00000007FFF8E
:100E900000000003FFFFFFFE00000007FFF000005E
:100EA000003FFFFFFFC0000000FFFE00000001FF49
:100EB000FFFFF80000001FFFC00000000FFFFFFF52
:100EC00000000001FFFC000000007FFFFFE00000C9
:100ED000003FFF8000000001FFFFFC00000003FF57
:100EE000F8000000000FFFFF0000000000000000FD
:100EF0000000001FFF800000000000000000000054
:100F0000000000000000FFFC0000000000000000E6
:100F100000FFFFFE00000000000000007FFFFFF860
:100F2000000000000000001FFFFFFFE000000000C5
:100F3000000007FFFFFFFF80000000000000FFFF30
:100F4000FFFFFC0000000000001FFFFFFFFFE000AC
:100F50000000000003FFFFFFFFFF00000000000093
:100F60007FFFFFFFFFF800000000000FFFFFFFFF03
:100F7000FFC00000000001FFFFFFFFFFFC000000BA
:100F800000001FFFFFFFFFFFE00000000003FFFF66
:100F9000FFFFFFFE00000000003FFFFFFFFFFFF02C
:100FA0000000000003FFFFFFFFFFFF000000000044
:100FB0007FFFFC01FFFFF00000000007FFFF80073C
:100FC000FFFF00000000007FFFF0003FFFF800007F
:100FD000000007FFFE0003FFFF80000000007FFF0E
:100FE000E0001FFFF8000000000FFFFC0001FFFF02
:100FF0008000000000FFFFC0001FFFF8000000009D
:1010000007FFFC0001FFFF80000000007FFFC00021
:101010001FFFF00000000007FFFC0001FFFF0000C1
:101020000000007FFFE0003FFFF00000000007FF2E
:10103000FE0003FFFF00000000007FFFE0007FFFD5
:10104000E00000000007FFFF000FFFFE00000000AF
:10105000003FFFF001FFFFE00000000003FFFF8002
:101060003FFFFC00000000001FFFFC07FFFFC00067
:1010700000000001FFFFC1FFFFF800000000001F9B
:10108000FFFE7FFFFF000000000000FFFFFFFFFFEB
:10109000E0000000000007FFFFFFFFFE000000006F
:1010A00000007FFFFFFFFFC0000000000003FFFF04
:1010B000FFFFF80000000000001FFFFFFFFF00001F
:1010C0000000000001FFFFFFFFE000000000000043
:1010D0000FFFFFFFF8000000000000007FFFFFFF90
:1010E000000000000000000FFFFFFFC00000000034
:1010F000000001FFFFFFF800000FFFFF00007FFF6F
:10110000FFFE000000FFFFF0000FFFFFFFE0000008
:101110001FFFFE0001FFFFFFFF000001FFFFE000D7
:101120007FFFFFFFF800001FFFFE000FFFFFFFFF24
:10113000C00003FFFFC001FFFFFFFFFE00003FFFF5
:10114000FC003FFFFFFFFFF00003FFFFC003FFFFB6
:10115000FFFFFF80007FFFF8007FFFFFFFFFFC0025
:1011600007FFFF800FFFFFF7FFFFE0007FFFF000AA
:10117000FFFFFE3FFFFF000FFFFF001FFFFFC1FF4C
:10118000FFF800FFFFF001FFFFF80FFFFFC01FFF98
:10119000FE003FFFFF007FFFFE01FFFFE003FFFFB8
:1011A000E003FFFFF03FFFFC003FFFFE001FFFFFDB
:1011B00083FFFFC007FFFFC000FFFFFC7FFFF800B9
:1011C0007FFFFC0007FFFFE7FFFF8007FFFF8000B6
:1011D0003FFFFFFFFFF0007FFFF80001FFFFFFFF71
:1011E000FF0007FFFF80000FFFFFFFFFE0007FFF12
:1011F000F800007FFFFFFFFE0007FFFF800003FFF6
:10120000FFFFFFC0007FFFF800001FFFFFFFF80097
:1012100007FFFF800000FFFFFFFF80007FFFF80057
:101220000007FFFFFFF00007FFFFC000003FFFFFC8
:10123000FE00007FFFFC000001FFFFFFE00007FF52
:10124000FFE000000FFFFFFC00007FFFFF00000039
:101250007FFFFF800003FFFFF800000FFFFFF80093
:10126000003FFFFFC00003FFFFFFC00003FFFFFFC1
:101270000001FFFFFFFE00001FFFFFFF01FFFFFF58
:10128000FFF00001FFFFFFFFFFFFFFFFFF80001FD8
:10129000FFFFFFFFFFFFFFFFFC0000FFFFFFFFFF5F
:1012A000FFFFFFFFE00007FFFFFFFFFFFFFFFFFF64
:1012B00000007FFFFFFFFFFFFFFFFFF80003FFFFBE
:1012C000FFFFFFFFFFFFFFC0001FFFFFFFFFFFFF4C
:1012D000FFFFFE0000FFFFFFFFFFFFFFFFFFF0002B
:1012E00007FFFFFFFFFFFE3FFFFF80001FFFFFFF25
:1012F000FFFF81FFFFFC0000FFFFFFFFFFF00FFF7C
:10130000FFE00003FFFFFFFFFC007FFFFF00000F77
:10131000FFFFFFFE0003FFFFF800001FFFFFFF00BD
:10132000001FFFFFC000001FFFFF000000000000C3
:101330007FFFCFFFF9FFFF3FFFE7FFFCFFFF9FFFAE
:10134000F3FFFE7FFFC7FFF8FFFE1FFFC3FFF87F1D
:10135000FF0FFFE1FFFC3FFF87FFF0FFFE1FFFC312
:10136000FFF87FFF07FFE0FFF81FFF03FFE07FFCB0
:101370000FFF81FFF03FFE07FFC0FFF81FFF0000D7
:10138000001FFFE00007FFF80000FFFE00003FFF26
:10139000C0000FFFF00003FFFC00007FFF80001F74
:1013A000FFE00007FFFC0000FFFF00003FFFE00040
:1013B00007FFF80001FFFE00003FFFC0000FFFF82D
:1013C0000001FFFE00007FFFC0000FFFF00003FFE1
:1013D000FE00007FFF80001FFFF00003FFFE000003
:1013E0007FFF80001FFFF00003FFFE0000FFFF8073
:1013F000001FFFF00003FFFE00007FFF80001FFFC3
:10140000F00003FFFE00007FFF80001FFFF00003DD
:10141000FFFE00007FFFC0000FFFF00001FFFE0095
:10142000007FFFC0000FFFF80001FFFF00003FFF3B
:10143000E00007FFF80000FFFF00003FFFE00007AB
:10144000FFFC0000FFFF80001FFFF00003FFFE0015
:10145000007FFFC0000FFFF80001FFFE00003FFF0C
:10146000C00007FFF80000FFFF00001FFFE00003BF
:10147000FFFC00007FFF80000FFFF00001FFFE0077
:10148000003FFFC00007FFF80000FFFF00001FFF44
:10149000E00003FFFE00007FFFC0000FFFF8000127
:1014A000FFFF00003FFFE00007FFFC00007FFF8020
:1014B000000FFFF00001FFFE00003FFFE00007FF0C
:1014C000FC0000FFFF80001FFFF00001FFFE000096
:1014D0003FFFE00007FFFC0000FFFF80000FFFF070
:1014E0000001FFFF00003FFFE00007FFFC00007F5E
:1014F000FF80000FFFF80001FFFF00001FFFE0006A
:1015000003FFFE00007FFFC00007FFFC0000FFFF9D
:1015100080000FFFF00001FFFF00003FFFE000032D
:10152000FFFE00007FFFC00007FFF80000FFFF8004
:10153000000FFFF00000FFFF00001FFFF00001FFA1
:10154000FE00003FFFE00003FFFC00003FFFC00083
:1015500007FFF800007FFF800007FFF800007FFF13
:1015600000000FFFF07FFF00000FFFF00000FFFF03
:1015700000000FFFE00001FFFE00001FFFE0000180
:10158000FFFE00003FFFC00003FFFC00007FFFC024
:101590000007FFF80000FFFF80000FFFF00001FFD1
:1015A000FF00001FFFE00003FFFE00003FFFC00040
:1015B00007FFFC00007FFF80000FFFF80001FFFF26
:1015C00000001FFFE00003FFFE00003FFFC0000718
:1015D000FFFC0000FFFF80000FFFF00001FFFE0096
:1015E000003FFFE00007FFFC00007FFF80000FFFCF
:1015F000F80001FFFF00003FFFE00003FFFC0000D8
:101600007FFFC0000FFFF80001FFFF00003FFFE079
:101610000003FFFC00007FFFC0000FFFF80001FF88
:10162000FF00003FFFE00007FFFC0000FFFF80001D
:101630000FFFF00001FFFE00003FFFC00007FFF8B2
:101640000000FFFF80001FFFF00003FFFE00007F8F
:10165000FFC0000FFFF80001FFFF00003FFFE000A8
:1016600007FFFC0000FFFF80001FFFF00003FFFEEC
:1016700000007FFFC0000FFFF80001FFFE00003FE9
:10168000FFC00007FFF80000FFFF00003FFFE00081
:1016900007FFFC0000FFFF80001FFFF00003FFFEBC
:1016A00000007FFFC0000FFFF00003FFFE00007F7F
:1016B000FFC0000FFFF80001FFFE00003FFFC00069
:1016C0000FFFF80001FFFF00003FFFE0000FFFF8F1
:1016D0000001FFFF00003FFFE00007FFF80001FFEF
:1016E000FF00003FFFE00007FFF80001FFFF0000E0
:1016F0003FFFE0000FFFF80001FFFF00003FFFC0C9
:10170000000FFFF80001FFFE00007FFFC0000FFF89
:10171000F00003FFFE00007FFF80001FFFF00003CA
:10172000FFFC0000FFFF80001FFFE00007FFF80044
:1017300000FFFF00003FFFC0000FFFF00001FFFCB3
:1017400000007FFF80001FFFE00000000001FFFE9F
:10175000000000000003FFFC000000000007FFF88D
:1017600000000000000FFFF000000000000FFFE08D
:1017700000000000001FFFC000000000003FFF80CD
:1017800000000000007FFF000000000000FFFE00DE
:101790000000000001FFF8000000000003FFF0005F
:1017A0000000000007FFE000000000000FFFC00085
:1017B000000000000FFF8000000000001FFF00007D
:1017C000000000003FFE0000000000007FFC000061
:1017D00000380000FFF80000607E0001FFE0000F0D
:1017E000C1FFC003FFC001FFC3FFF007FF801FFF61
:1017F00087FFFE0FFF03FFFF0FFFFF8FFE3FFFFE80
:101800001FFFFFFFFFFFFFFC3FFFFFFFFFFFFFF892
:101810007FFFFFFFFFFFFFF1FFFFFFFFFFFFFFF372
:10182000FFFFFFFFFFFFFFE7FFFFFFFFFFFFFFCF10
:10183000FFFFFFFFFFFFFF9FFFFFFFFFFFFFFF3FD8
:10184000FFFFFFFFFFFFFE3FFFFFFFFFFFFFFC006B
:1018500003FFFFFFFE000000001FFFFE000000006E
:10186000007FFFFE0000000000FFFFFE0000000000
:1018700003FFFFFE000000000FFFFFFC0000000060
:101880003FFFFFFC000000007FFFFFFC00000001A5
:10189000FFFDFFFC00000007FFF3FFF80000000F52
:1018A000FFE3FFF80000003FFF87FFF8000000FFA4
:1018B000FF07FFF8000003FFFC0FFFF0000007FF29
:1018C000F80FFFF000001FFFF01FFFF000007FFF88
:1018D000C01FFFF00001FFFF803FFFE00003FFFE9D
:1018E000003FFFE0000FFFFC007FFFE00007FFF07C
:1018F000007FFF000003FFE000FFF8000001FF8011
:1019000000FFC0000000FF0001FF000000007E009B
:1019100003F800000000380003C0000000001000C1
:10192000060000000000007FFE0000000000007FB5
:10193000FE0000000000007FFE0000000000007FAD
:10194000FE0000000000007FFE0000000000007F9D
:10195000FE0000000000007FFE0000000000007F8D
:10196000FE0000000000007FFE0000000000007F7D
:10197000FE0000000000007FFE0000000000007F6D
:10198000FE0000000000007FFE0000000000007F5D
:10199000FE0000000000007FFE0000000000007F4D
:1019A000FE0000000000007FFE0000000000007F3D
:1019B000FE0000000000007FFE0000000000007F2D
:1019C000FE0000000000007FFE0000000000007F1D
:1019D000FE0000000000007FFE0000000000007F0D
:1019E000FE0000000000007FFE0000007FFFFFFF00
:1019F000FFFFFFFE7FFFFFFFFFFFFFFE7FFFFFFFF9
:101A0000FFFFFFFE7FFFFFFFFFFFFFFE7FFFFFFFE8
:101A1000FFFFFFFE7FFFFFFFFFFFFFFE7FFFFFFFD8
:101A2000FFFFFFFE7FFFFFFFFFFFFFFE7FFFFFFFC8
:101A3000FFFFFFFE7FFFFFFFFFFFFFFE7FFFFFFFB8
:101A4000FFFFFFFE7FFFFFFFFFFFFFFE7FFFFFFFA8
:101A5000FFFFFFFE0000007FFE0000000000007F8F
:101A6000FE0000000000007FFE0000000000007F7C
:101A7000FE0000000000007FFE0000000000007F6C
:101A8000FE0000000000007FFE0000000000007F5C
:101A9000FE0000000000007FFE0000000000007F4C
:101AA000FE0000000000007FFE0000000000007F3C
:101AB000FE0000000000007FFE0000000000007F2C
:101AC000FE0000000000007FFE0000000000007F1C
:101AD000FE0000000000007FFE0000000000007F0C
:101AE000FE0000000000007FFE0000000000007FFC
:101AF000FE0000000000007FFE0000000000007FEC
:101B0000FE0000000000007FFE0000000000007FDB
:101B1000FE000000000000007FFFE03FFFF80FFF25
:101B2000FE03FFFF00FFFFC03FFFF00FFFFC07FFBA
:101B3000FE01FFFF807FFFE01FFFF007FFFC03FFB8
:101B4000FF00FFFF803FFFE00FFFF803FFFC01FFF6
:101B5000FF007FFF801FFFE007FFF801FFFC00FF91
:101B6000FF003FFF800FFFE003FFF801FFFC007F55
:101B7000FF001FFF8007FFE000FFFFFFFFFFFFFFE9
:101B8000FFFFFFFFFFFFFFFFFFFFFFFFFFFFFFFF65
:101B9000FFFFFFFFFFFFFFFFFFFFFFFFFFFFFFFF55
:101BA000FFFFFFFFFFFFFFFFFFFFFFFFFFFFFFFF45
:101BB000FFFFFFFFFFFFFFFFFFFFFFFFFF00FF0033
:101BC0000FFF803FFFC0FFFFC3FFFF87FFFF9FFFA7
:101BD000FF3FFFFE7FFFFEFFFFFDFFFFFBFFFFF765
:101BE000FFFFEFFFFF9FFFFF1FFFFE3FFFF83FFFDD
:101BF000E03FFFC03FFE001FF000000000003FFF7D
:101C0000F000000003FFFE000000003FFFE00000C6
:101C10000007FFFC000000007FFFC00000000FFF76
:101C2000FC00000000FFFF800000000FFFF8000034
:101C30000001FFFF800000001FFFF000000001FF17
:101C4000FF000000003FFFF000000003FFFE000067
:101C500000007FFFE000000007FFFC000000007FA5
:101C6000FFC00000000FFFFC00000000FFFF80002D
:101C700000000FFFF800000001FFFF800000001FC0
:101C8000FFF000000003FFFF000000003FFFE00046
:101C9000000003FFFE000000007FFFE000000007DF
:101CA000FFFC000000007FFFC00000000FFFFC00F1
:101CB000000000FFFF800000000FFFF8000000019F
:101CC000FFFF000000001FFFF000000003FFFF0007
:101CD0000000003FFFE000000003FFFE00000000E6
:101CE0007FFFE000000007FFFC000000007FFFC056
:101CF0000000000FFFF800000000FFFF8000000060
:101D00001FFFF800000001FFFF000000001FFFF0B0
:101D100000000003FFFF000000003FFFE0000000A4
:101D200003FFFE000000007FFFC000000007FFFC73
:101D300000000000FFFFC00000000FFFF8000000DF
:101D400000FFFF800000001FFFF800000001FFFF00
:101D5000000000001FFFF000000003FFFF00000074
:101D6000003FFFE000000007FFFE000000007FFFD3
:101D7000C000000007FFFC00000000FFFFC00000E3
:101D8000000FFFF800000000FFFF800000001FFFB1
:101D9000F800000001FFFF000000003FFFF000001E
:101DA0000003FFFE000000003FFFE000000007FF0F
:101DB000FE000000007FFFC000000007FFFC0000E5
:101DC0000000FFFFC00000000FFFF800000000FF50
:101DD000FF800000001FFFF000000001FFFF000077
:101DE00000003FFFF000000003FFFE000000003F86
:101DF000FFE000000007FFFE000000007FFFC000C2
:101E0000000007FFFC00000000FFFF800000000F43
:101E1000FFF800000001FFFF800000001FFFF0003E
:101E2000000001FFFF000000003FFFF00000000382
:101E3000FFFE000000003FFFE000000007FFFC0085
:101E40000000007FFFC00000000000000000000054
:101E50000000000000FFFF000000000007FFFFC0BF
:101E6000000000003FFFFFF800000000FFFFFFFE42
:101E700000000001FFFFFFFF80000007FFFFFFFFE2
:101E8000C000000FFFFFFFFFE000001FFFFFFFFF8C
:101E9000F000003FFFFFFFFFF800007FFFFFFFFFA4
:101EA000FC00007FFFFFFFFFFE0000FFFFFFFFFFC2
:101EB000FF0001FFFFFFFFFFFF0001FFFFFFFFFF2C
:101EC000FF8003FFFFFFFFFFFF8003FFFFFE7FFF99
:101ED000FFC007FFFFE007FFFFC007FFFFC003FFD2
:101EE000FFE00FFFFF8001FFFFE00FFFFF0000FF9B
:101EF000FFF00FFFFE00007FFFF01FFFFE00007FDE
:101F0000FFF01FFFFC00003FFFF81FFFFC00003F39
:101F1000FFF83FFFFC00003FFFF83FFFF800001F05
:101F2000FFFC3FFFF800001FFFFC3FFFF800001F11
:101F3000FFFC3FFFF800001FFFFC3FFFF800001F01
:101F4000FFFC7FFFF000000FFFFE7FFFF000000F9F
:101F5000FFFE7FFFF000000FFFFE7FFFF000000F8D
:101F6000FFFE7FFFF000000FFFFE7FFFF000000F7D
:101F7000FFFE7FFFF000000FFFFF7FFFF000000F6C
:101F8000FFFFFFFFF0000007FFFFFFFFE00000077B
:101F9000FFFFFFFFE0000007FFFFFFFFE00000077B
:101FA000FFFFFFFFE0000007FFFFFFFFE00000076B
:101FB000FFFFFFFFE0000007FFFFFFFFE00000075B
:101FC000FFFFFFFFE0000007FFFFFFFFE00000074B
:101FD000FFFFFFFFE0000007FFFFFFFFE00000073B
:101FE000FFFFFFFFE0000007FFFFFFFFE00000072B
:101FF000FFFFFFFFE0000007FFFFFFFFE00000071B
:10200000FFFFFFFFE0000007FFFF7FFFF000000F72
:10201000FFFF7FFFF000000FFFFF7FFFF000000FCA
:10202000FFFF7FFFF000000FFFFE7FFFF000000FBB
:10203000FFFE7FFFF000000FFFFE7FFFF000000FAC
:10204000FFFE7FFFF000000FFFFE3FFFF000000FDC
:10205000FFFE3FFFF800001FFFFE3FFFF800001FDC
:10206000FFFC3FFFF800001FFFFC3FFFF800001FD0
:10207000FFFC1FFFF800003FFFFC1FFFFC00003FBC
:10208000FFF81FFFFC00003FFFF81FFFFE00007F6E
:10209000FFF80FFFFE00007FFFF80FFFFF0000FFBB
:1020A000FFF00FFFFF0000FFFFF007FFFF8001FFC1
:1020B000FFF007FFFFC003FFFFE003FFFFF00FFF8C
:1020C000FFE003FFFFFFFFFFFFC001FFFFFFFFFF78
:1020D000FFC001FFFFFFFFFFFF8000FFFFFFFFFFCB
:1020E000FF80007FFFFFFFFFFF00003FFFFFFFFFBC
:1020F000FE00003FFFFFFFFFFC00001FFFFFFFFF90
:10210000F800000FFFFFFFFFF0000007FFFFFFFFD9
:10211000E0000001FFFFFFFFC0000000FFFFFFFF26
:10212000000000003FFFFFFE000000000FFFFFF077
:102130000000000001FFFF80000000000007FFF822
:102140000000003FFFE0000001FFFF8000001FFFD4
:10215000FE000000FFFFF8000007FFFFE000007F27
:10216000FFFF800003FFFFFE00001FFFFFF80000DD
:10217000FFFFFFE0000FFFFFFF80007FFFFFFE007B
:1021800003FFFFFFF8001FFFFFFFE001FFFFFFFF5E
:10219000800FFFFFFFFE007FFFFFFFF803FFFFFF41
:1021A000FFE03FFFFFFFFF81FFFFFFFFFE0FFFFF8D
:1021B000DFFFF87FFFFE7FFFE7FFFFF3FFFFBFFFBB
:1021C000FF8FFFFE7FFFFC3FFFF8FFFFE0FFFFE315
:1021D000FFFF03FFFF87FFF80FFFFE0FFFC03FFF6A
:1021E000F81FFC00FFFFE03FE003FFFF80FF000F50
:1021F000FFFE01F8003FFFF8038000FFFFE004004E
:1022000003FFFF8000000FFFFE0000003FFFF8000B
:102210000000FFFFE0000003FFFF8000000FFFFE53
:102220000000003FFFF8000000FFFFE0000003FF98
:10223000FF8000000FFFFE0000003FFFF8000000DD
:10224000FFFFE0000003FFFF8000000FFFFE000023
:10225000003FFFF8000000FFFFE0000003FFFF80E9
:1022600000000FFFFE0000003FFFF8000000FFFF2E
:10227000E0000003FFFF8000000FFFFE0000003FB2
:10228000FFF8000000FFFFE0000003FFFF800000F8
:102290000FFFFE0000003FFFF8000000FFFFE0001E
:1022A0000003FFFF8000000FFFFE0000003FFFF86B
:1022B000000000FFFFE0000003FFFF8000000FFFB1
:1022C000FE0000003FFFF8000000FFFFE0000003F9
:1022D000FFFF8000000FFFFE0000003FFFF800003E
:1022E00000FFFFE0000003FFFF8000000FFFFE0083
:1022F00000003FFFF8000000FFFFE0000003FFFFC9
:102300008000000FFFFE0000003FFFF8000000FF0C
:10231000FFE0000003FFFF8000000FFFFE00000051
:102320003FFFF8000000FFFFE0000003FFFF800018
:10233000000FFFFE0000003FFFF8000000FFFFE07D
:10234000000003FFFF80000000000000000000000C
:10235000007FFF800000000003FFFFFC0000000082
:102360000FFFFFFFC00000003FFFFFFFF80000006D
:102370007FFFFFFFFF000000FFFFFFFFFFC0000027
:10238000FFFFFFFFFFF80001FFFFFFFFFFFE00015F
:10239000FFFFFFFFFFFF8001FFFFFFFFFFFFE003E5
:1023A000FFFFFFFFFFFFF003FFFFFFFFFFFFFC0347
:1023B000FFFFFFFFFFFFFF01FFFFFFFFFFFFFF80AA
:1023C0007FFFFFFFFFFFFFE01FFFFFFFFFFFFFF0AB
:1023D0000FFFFFF007FFFFFC03FFFF8000FFFFFE82
:1023E00000FFFF00001FFFFF003FFE00000FFFFF88
:1023F000800FFE000003FFFFE003FC000000FFFF72
:10240000F001FC0000007FFFF800780000003FFFB3
:10241000FC00180000000FFFFE000000000007FF96
:10242000FF000000000003FFFF800000000001FF2C
:10243000FFC00000000000FFFFE000000000007F80
:10244000FFF000000000007FFFF000000000003FF0
:10245000FFF800000000001FFFFC00000000000F5C
:10246000FFFE00000000000FFFFE0000000000075C
:10247000FFFF000000000007FFFF800000000003D6
:10248000FFFF800000000003FFFFC000000000030A
:10249000FFFFC00000000001FFFFE000000000019E
:1024A000FFFFE00000000001FFFFF000000000015E
:1024B000FFFFF00000000001FFFFF000000000013E
:1024C000FFFFF80000000001FFFFF800000000001F
:1024D000FFFFF80000000000FFFFF8000000000010
:1024E000FFFFF80000000000FFFFF8000000000000
:1024F000FFFFFC0000000000FFFFFC0000000000E8
:10250000FFFFFC0000000000FFFFFC0000000000D7
:10251000FFFFFC0000000000FFFFFC0000000000C7
:10252000FFFFFC0000000000FFFFFC0000000000B7
:10253000FFFFFC0000000000FFFFFC0000000000A7
:10254000FFFFF80000000000FFFFF800000000009F
:10255000FFFFF80000000000FFFFF800000000008F
:10256000FFFFF80000000000FFFFF800000000007F
:10257000FFFFF80000000000FFFFF800000000006F
:10258000FFFFF80000000000FFFFF800000000005F
:10259000FFFFF80000000000FFFFF800000000004F
:1025A000FFFFF80000000000FFFFF800000000003F
:1025B000FFFFF80000000000FFFFFFFFFFFFFFF834
:1025C000FFFFFFFFFFFFFFFCFFFFFFFFFFFFFFFE1F
:1025D0007FFFFFFFFFFFFFFF3FFFFFFFFFFFFFFF4B
:1025E0009FFFFFFFFFFFFFFFCFFFFFFFFFFFFFFF8B
:1025F000E7FFFFFFFFFFFFFFF3FFFFFFFFFFFFFF0F
:10260000F9FFFFFFFFFFFFFFFCFFFFFFFFFFFFFFE3
:10261000FE7FFFFFFFFFFFFFFF3FFFFFFFFFFFFF0B
:10262000FF9FFFFFFFFFFFFFFFCFFFFFFFFFFFFF4A
:10263000FFE7FFFFFFFFFFFFFFF0000000000000CB
:102640000000000007FFFE00000000007FFFFFF019
:1026500000000007FFFFFFFE0000001FFFFFFFFF5D
:10266000800000FFFFFFFFFFE00003FFFFFFFFFF11
:10267000F8000FFFFFFFFFFFFC001FFFFFFFFFFF42
:10268000FE007FFFFFFFFFFFFF007FFFFFFFFFFF59
:10269000FF803FFFFFFFFFFFFFC03FFFFFFFFFFF88
:1026A000FFC01FFFFFFFFFFFFFE00FFFFFFFFFFF68
:1026B000FFE00FFFFFFFFFFFFFF007FFFFE7FFFF58
:1026C000FFF003FFF8001FFFFFF003FFC00003FF50
:1026D000FFF801FF000001FFFFF800FC000000FF11
:1026E000FFF800F00000007FFFF800400000007FCE
:1026F000FFF800000000007FFFF800000000003F2E
:10270000FFF800000000003FFFF800000000003F5D
:10271000FFF800000000003FFFF000000000003F55
:10272000FFF000000000003FFFF000000000007F0D
:10273000FFF000000000007FFFE000000000007FCD
:10274000FFE00000000000FFFFC00000000001FFEC
:10275000FFC00000000003FFFF800000000007FF33
:10276000FF00000000003FFFFE0000000003FFFF2D
:10277000FC000003FFFFFFFFF8000003FFFFFFFF67
:10278000F0000003FFFFFFFFE0000003FFFFFFFF7B
:1027900080000003FFFFFFFE00000003FFFFFFF0CB
:1027A00000000003FFFFFF8000000003FFFFFFF8B1
:1027B00000000003FFFFFFFF80000003FFFFFFFF9B
:1027C000F0000003FFFFFFFFFC000003FFFFFFFF1F
:1027D000FE000003FFFFFFFFFF800003FFFFFFFF7E
:1027E000FFC00003FFFFFFFFFFE000000003FFFF4B
:1027F000FFF0000000001FFFFFF00000000003FFDB
:10280000FFF80000000001FFFFFC00000000007F57
:10281000FFFC00000000007FFFFC00000000003F04
:10282000FFFE00000000001FFFFE00000000001F70
:10283000FFFE00000000001FFFFE00000000001F60
:10284000FFFE00000000001FFFFF00000000001F4F
:10285000FFFF00000000001FFFFF00000000001F3E
:10286000FFFE00000000001FFFFE00000000001F30
:10287000FFFE00000000003FFFFE00000000003FE0
:10288000FFFE80000000007FFFFEE0000000007FF0
:10289000FFFEF800000000FFFFFCFF00000003FF48
:1028A000FFFCFFE000000FFFFFFCFFFE00007FFFCA
:1028B000FFF8FFFFFFFFFFFFFFF8FFFFFFFFFFFF36
:1028C000FFF0FFFFFFFFFFFFFFE0FFFFFFFFFFFF46
:1028D000FFE0FFFFFFFFFFFFFFC0FFFFFFFFFFFF66
:1028E000FF80FFFFFFFFFFFFFF00FFFFFFFFFFFF76
:1028F000FE00FFFFFFFFFFFFFC00FFFFFFFFFFFFEA
:10290000F000FFFFFFFFFFFFE0003FFFFFFFFFFFC3
:10291000800007FFFFFFFFFC0000007FFFFFFFF0CC
:1029200000000007FFFFFE0000000000000000FFA5
:10293000FFE0000000000003FFFF80000000000037
:102940001FFFFE000000000000FFFFF80000000075
:102950000003FFFFE000000000001FFFFF800000F9
:10296000000000FFFFFE000000000003FFFFF80072
:10297000000000001FFFFFE00000000000FFFFFF5D
:10298000800000000003FFFFFE00000000001FFFAA
:10299000FFF80000000000FFFFFFE0000000000360
:1029A000FFFFFF80000000001FFFFFFE000000008F
:1029B00000FFFFFFF80000000003FFFFFFE0000042
:1029C00000001FFFFFFF8000000000FFFFFFFE0070
:1029D00000000003FFFFFFF8000000001FFFFFFFE3
:1029E000E000000000FFFFFFFF8000000003FFFF8A
:1029F000FFFE000000001FFFBFFFF800000000FF07
:102A0000FEFFFFE000000003FFF3FFFF8000000077
:102A10001FFFCFFFFE00000000FFFE3FFFF8000099
:102A20000007FFF8FFFFE00000001FFFC3FFFF806B
:102A3000000000FFFF0FFFFE00000007FFF83FFF50
:102A4000F80000001FFFC0FFFFE0000000FFFF03D1
:102A5000FFFF80000007FFF80FFFFE0000001FFFD0
:102A6000C03FFFF8000000FFFF00FFFFE00000078D
:102A7000FFF803FFFF8000001FFFC00FFFFE0000F4
:102A800000FFFF003FFFF8000007FFF800FFFFE036
:102A900000001FFFC003FFFF800000FFFF000FFFCB
:102AA000FE000007FFF8003FFFF800001FFFC00016
:102AB000FFFFE00000FFFF0003FFFF800007FFF8BB
:102AC000000FFFFE00001FFFC0003FFFF80000FFE7
:102AD000FF0000FFFFE00007FFF80003FFFF80009A
:102AE0001FFFC0000FFFFE0000FFFF00003FFFF8C8
:102AF0000007FFF80000FFFFE0001FFFC00003FF1A
:102B0000FF8000FFFF00000FFFFE0007FFF800003E
:102B10003FFFF8003FFFC00000FFFFE000FFFF00A5
:102B20000003FFFF8007FFFFFFFFFFFFFFFFDFFF47
:102B3000FFFFFFFFFFFFFF7FFFFFFFFFFFFFFFFD27
:102B4000FFFFFFFFFFFFFFFFF7FFFFFFFFFFFFFF9D
:102B5000FFDFFFFFFFFFFFFFFFFF7FFFFFFFFFFF25
:102B6000FFFFFDFFFFFFFFFFFFFFFFF7FFFFFFFF7F
:102B7000FFFFFFFFDFFFFFFFFFFFFFFFFF7FFFFF05
:102B8000FFFFFFFFFFFDFFFFFFFFFFFFFFFFF7FF5F
:102B9000FFFFFFFFFFFFFFDFFFFFFFFFFFFFFFFF65
:102BA0007FFFFFFFFFFFFFFFFC0000000003FFFFB0
:102BB0008000000000000FFFFE0000000000003F4A
:102BC000FFF8000000000000FFFFE0000000000030
:102BD00003FFFF8000000000000FFFFE0000000068
:102BE00000003FFFF8000000000000FFFFE00000D1
:102BF00000000003FFFF8000000000000FFFFE0048
:102C000000000000003FFFF8000000000000FFFF90
:102C1000E0000000000003FFFF8000000000000F44
:102C2000FFFE0000000000003FFFF8000000000071
:102C300000FFFFE0000000000003FFFF8000000035
:102C400000000FFFFE000003FFFFFFFFFFFF000F6C
:102C5000FFFFFFFFFFFC003FFFFFFFFFFFF000FF54
:102C6000FFFFFFFFFFC003FFFFFFFFFFFF000FFF9E
:102C7000FFFFFFFFFC003FFFFFFFFFFFF001FFFF33
:102C8000FFFFFFFFC007FFFFFFFFFFFF001FFFFF6A
:102C9000FFFFFFFC007FFFFFFFFFFFF001FFFFFFD3
:102CA000FFFFFFC007FFFFFFFFFFFF001FFFFFFF4A
:102CB000FFFFFC007FFFFFFFFFFFF001FFFFFFFFB3
:102CC000FFFFC007FFFE00000000001FFFF800002C
:102CD0000000007FFFE00000000001FFFF80000017
:102CE000000007FFFE00000000003FFFF0000000B2
:102CF0000000FFFFC00000000003FFFF0000000015
:102D0000000FFFFC00000000003FFFF0000000008B
:102D100000FFFFC00000000003FFFF0000000000F4
:102D20000FFFFC00000000003FFFF000000000006B
:102D3000FFFFC00000000003FFFF00000000000FC5
:102D4000FFF800000000003FFFE0FFF0000001FF7F
:102D5000FFFFFFFE000007FFFFFFFFFF00001FFF58
:102D6000FFFFFFFF00007FFFFFFFFFFF0001FFFFEE
:102D7000FFFFFFFE0007FFFFFFFFFFFE001FFFFF3B
:102D8000FFFFFFFC007FFFFFFFFFFFF801FFFFFFDA
:102D9000FFFFFFF007FFFFFFFFFFFFC01FFFFFFF69
:102DA000FFFFFF807FFFFFFFFFFFFF01FFFFFFFF30
:102DB000FFFFFC03FFFFFFFFFFFFF803FFFFFFFF25
:102DC000FFFFE003FC0007FFFFFFC002000003FF5E
:102DD000FFFF0000000003FFFFFC0000000003FFF6
:102DE000FFF80000000007FFFFE0000000000FFFF9
:102DF000FF80000000003FFFFE00000000007FFF9A
:102E0000F80000000001FFFFF00000000003FFFFDA
:102E1000C0000000000FFFFF00000000003FFFFCAB
:102E20000000000000FFFFF00000000003FFFFC0F3
:102E3000000000000FFFFF00000000003FFFFC004B
:102E400000000000FFFFE00000000003FFFF800023
:102E50000000000FFFFE00000000007FFFF80000F0
:102E6000000001FFFFE0000000000FFFFF900000E6
:102E700000007FFFFC7000000001FFFFF1F0000088
:102E8000000FFFFFC7F8000000FFFFFE1FFE00005D
:102E90000FFFFFF87FFFC007FFFFFFC1FFFFFFFF2E
:102EA000FFFFFF07FFFFFFFFFFFFF81FFFFFFFFF11
:102EB000FFFFE07FFFFFFFFFFFFF01FFFFFFFFFFBF
:102EC000FFF807FFFFFFFFFFFFC01FFFFFFFFFFF30
:102ED000FE007FFFFFFFFFFFF001FFFFFFFFFFFF8F
:102EE0008007FFFFFFFFFFF8001FFFFFFFFFFFC08E
:102EF000003FFFFFFFFFFC00001FFFFFFFFFC000C0
:102F0000000FFFFFFFF800000003FFFFFE000000BE
:102F10000000000000FFFE00000000003FFFFFE097
:102F200000000001FFFFFFF000000007FFFFFFF8B7
:102F30000000000FFFFFFFFC0000001FFFFFFFFE6F
:102F40000000003FFFFFFFFF0000007FFFFFFFFFCB
:102F50008000007FFFFFFFFFC000007FFFFFFFFF3B
:102F6000E000007FFFFFFFFFF00000FFFFFFFFFF1B
:102F7000F80000FFFFFFFFFFFC0000FFFFFFFFFF67
:102F8000FE00007FFFFFFFFFFF00007FFFFFFF004D
:102F90000F80007FFFFFF0000000003FFFFFC00038
:102FA0000000003FFFFF00000000003FFFFF0000A7
:102FB0000000001FFFFE00000000001FFFFE0000D9
:102FC0000000000FFFFE00000000000FFFFE0000E9
:102FD00000000007FFFE000000000003FFFE0000ED
:102FE00000000003FFFF000000000001FFFF0000E1
:102FF00000000001FFFF800000000000FFFF8000D4
:10300000000000007FFFC000000000003FFFE00064
:10301000000000003FFFE000000000001FFFF00084
:103020000FF000000FFFF800FFFF800007FFFC0318
:10303000FFFFF80003FFFE03FFFFFF0003FFFE0793
:10304000FFFFFFE001FFFF07FFFFFFF800FFFF8723
:10305000FFFFFFFE007FFFC7FFFFFFFF803FFFE78F
:10306000FFFFFFFFE01FFFF3FFFFFFFFF80FFFFB76
:10307000FFFFFFFFFC07FFFFFFFFFFFFFF07FFFF53
:10308000FFFFFFFFFFC3FFFFFFFFFFFFFFE1FFFFAA
:10309000FFFFFFFFFFF8FFFFFFF807FFFFFC7FFFC9
:1030A000FFF0007FFFFF3FFFFFE0001FFFFF9FFFDC
:1030B000FFE00007FFFFCFFFFFE00001FFFFE7FF9A
:1030C000FFE000007FFFFBFFFFE000003FFFFDFF90
:1030D000FFE000000FFFFEFFFFF0000007FFFF7F93
:1030E000FFF8000003FFFFBFFFF8000001FFFFDF54
:1030F000FFFC0000007FFFEFFFFE0000003FFFF736
:10310000FFFF0000001FFFF9FFFF8000000FFFFC22
:10311000FFFFC0000007FFFE7FFFE0000003FFFF8E
:103120003FFFF8000001FFFF9FFFFC000001FFFFD1
:10313000C7FFFE000000FFFFE3FFFF8000007FFFEE
:10314000F1FFFFC000003FFFF8FFFFE000003FFF7E
:10315000FC3FFFF800001FFFFC1FFFFE00000FFFF9
:10316000FE0FFFFF00000FFFFF03FFFFC0000FFF78
:10317000FF81FFFFF0000FFFFF807FFFFE000FFFCA
:10318000FFC03FFFFFC01FFFFFC00FFFFFFFFFFF9C
:10319000FFE007FFFFFFFFFFFFE001FFFFFFFFFF73
:1031A000FFF0007FFFFFFFFFFFF0003FFFFFFFFF8B
:1031B000FFF0000FFFFFFFFFFFF80003FFFFFFFF1F
:1031C000FFF80000FFFFFFFFFFF800003FFFFFFFD9
:1031D000FFF8000007FFFFFFFFF0000001FFFFFF07
:1031E000FFF00000003FFFFFFFF00000000FFFFFB7
:1031F000FFE000000000FFFFFFC0000000000FFF25
:10320000FE0000007FFFFFFFFFFFFFFFCFFFFFFF7C
:10321000FFFFFFFFF9FFFFFFFFFFFFFFFF3FFFFF84
:10322000FFFFFFFFFFE7FFFFFFFFFFFFFFFCFFFFC9
:10323000FFFFFFFFFFFF9FFFFFFFFFFFFFFFF3FF0A
:10324000FFFFFFFFFFFFFE7FFFFFFFFFFFFFFFCF3F
:10325000FFFFFFFFFFFFFFF9FFFFFFFFFFFFFFFF84
:103260003FFFFFFFFFFFFFFFE7FFFFFFFFFFFFFF46
:10327000FCFFFFFFFFFFFFFFFF9FFFFFFFFFFFFFC1
:10328000FFF3FFFFFFFFFFFFFFFC00000000000354
:10329000FFFF8000000000007FFFE0000000000052
:1032A0001FFFFC000000000003FFFF000000000003
:1032B00000FFFFE000000000001FFFFC0000000016
:1032C0000007FFFF000000000000FFFFE00000001B
:1032D00000003FFFF8000000000007FFFF000000B3
:1032E000000001FFFFC000000000003FFFF80000E9
:1032F00000000007FFFE000000000001FFFFC0000B
:10330000000000003FFFF800000000000FFFFE007B
:103310000000000001FFFFC000000000007FFFF080
:1033200000000000000FFFFE000000000003FFFF90
:103330008000000000007FFFF000000000001FFF81
:10334000FE000000000003FFFF800000000000FFFF
:10335000FFF000000000001FFFFC00000000000361
:10336000FFFF800000000000FFFFE0000000000001
:103370001FFFFC000000000007FFFF00000000002E
:1033800000FFFFE000000000003FFFFC0000000025
:103390000007FFFF000000000001FFFFE000000049
:1033A00000003FFFF800000000000FFFFF000000DA
:1033B000000001FFFFC000000000003FFFF8000018
:1033C0000000000FFFFF000000000001FFFFC00031
:1033D000000000007FFFF800000000000FFFFE006B
:1033E0000000000003FFFFC000000000007FFFF0AE
:1033F00000000000001FFFFE000000000003FFFFB0
:10340000800000000000FFFFF000000000001FFF30
:10341000FE000000000003FFFF800000000000FF2E
:10342000FFF000000000001FFFFC0000000000078C
:10343000FFFF800000000000FFFFE0000000000030
:103440003FFFFC000000000007FFFF8000000000BD
:1034500001FFFFE000000000003FFFFC0000000053
:10346000000FFFFF000000000001FFFFE000000070
:1034700000007FFFF800000000000FFFFF000000C9
:10348000000001FFFFE000000000007FFFF80000E7
:103490000000000FFFFF000000000003FFFFC0005E
:1034A000000000007FFFF800000000001FFFFE008A
:1034B0000000000003FFFFC00000000000FFFFF05D
:1034C00000000000001FFFFE000000000007FFFFDB
:1034D000C00000000000FFFFF000000000001FFF20
:1034E000FE000000000007FFFF800000000000FF5A
:1034F000FFF000000000003FFFFC000000000000A3
:10350000000000000000000000003FFF000000007D
:103510000003FFFFFC0000000007FFFFFFC00000EA
:10352000001FFFFFFFF80000003FFFFFFFFF00004C
:10353000003FFFFFFFFFE000007FFFFFFFFFF800FD
:10354000007FFFFFFFFFFE00007FFFFFFFFFFF8008
:10355000007FFFFFFFFFFFE0003FFFFFFFFFFFF8DF
:10356000003FFFFFFFFFFFFC003FFFFFFFFFFFFFEC
:10357000001FFFFFFFFFFFFFC01FFFFFE01FFFFF58
:10358000E00FFFFFC003FFFFF007FFFF80007FFF9A
:10359000FC07FFFF80001FFFFE03FFFF800007FF07
:1035A000FF01FFFFC00003FFFF80FFFFC00000FF1F
:1035B000FFC07FFFE000007FFFE03FFFF000003F23
:1035C000FFF01FFFF800001FFFF80FFFFC00000FC7
:1035D000FFFC07FFFE000007FFFE03FFFF000003E4
:1035E000FFFF00FFFFC00003FFFF807FFFE000013F
:1035F000FFFF803FFFF80001FFFFC01FFFFE00003C
:10360000FFFFE007FFFF8000FFFFE003FFFFE00197
:10361000FFFFF000FFFFF801FFFFF0007FFFFF0357
:10362000FFFFF0001FFFFFE7FFFFF80007FFFFFFAE
:10363000FFFFF80001FFFFFFFFFFF800007FFFFF23
:10364000FFFFF800001FFFFFFFFFF8000007FFFF6C
:10365000FFFFF0000001FFFFFFFFF00000007FFF11
:10366000FFFFE00000000FFFFFFFC000000003FFAE
:10367000FFFFC000000003FFFFFFF800000007FF8E
:10368000FFFFFF00000007FFFFFFFFC000000FFF6C
:10369000FFFFFFF800000FFFFFFFFFFE00000FFF1E
:1036A000FFFFFFFF80000FFFFFFFFFFFF0000FFF96
:1036B000FFFFFFFFFC000FFFFFF1FFFFFF000FFF09
:1036C000FFE07FFFFFC00FFFFFC00FFFFFE007FF1E
:1036D000FFC001FFFFF807FFFFC0007FFFFE07FFED
:1036E000FF80001FFFFF03FFFF800003FFFFC1FFFC
:1036F000FFC00000FFFFE1FFFFC000003FFFF8FF39
:10370000FFC000001FFFFC7FFFE0000007FFFE7FFF
:10371000FFF0000003FFFFBFFFF0000000FFFFDF2E
:10372000FFF80000007FFFEFFFFC0000003FFFF705
:10373000FFFE0000001FFFFBFFFF0000000FFFFD6A
:10374000FFFF80000007FFFEFFFFC0000003FFFF38
:103750007FFFF0000003FFFFBFFFF8000001FFFF45
:10376000CFFFFE000001FFFFC7FFFF800000FFFF4B
:10377000E3FFFFE00000FFFFF1FFFFF80001FFFFA4
:10378000F07FFFFF0003FFFFF83FFFFFFE7FFFFF1B
:10379000FC0FFFFFFFFFFFFFFC07FFFFFFFFFFFF27
:1037A000FC01FFFFFFFFFFFFFE007FFFFFFFFFFFAA
:1037B000FE001FFFFFFFFFFFFE0007FFFFFFFFFFF1
:1037C000FE0001FFFFFFFFFFFE00007FFFFFFFFF86
:1037D000FC00001FFFFFFFFFFC000003FFFFFFFFD7
:1037E000F80000007FFFFFFFF000000007FFFFFF71
:1037F000C0000000003FFFFF0000000000003FF895
:10380000000000000001FFFFF00000000003FFFFC8
:10381000FF8000000003FFFFFFF800000003FFFF30
:10382000FFFF80000001FFFFFFFFF0000000FFFF2F
:10383000FFFFFF000000FFFFFFFFFFE000007FFF32
:10384000FFFFFFFC00003FFFFFFFFFFF80001FFFA7
:10385000FFFFFFFFF00007FFFFFFFFFFFE0003FF7A
:10386000FFFFFFFFFF8001FFFFFFFFFFFFF0007F73
:10387000FFFFFFFFFFFE003FFFFFFFFFFFFF800F87
:10388000FFFFE007FFFFF007FFFFE0007FFFFC0105
:10389000FFFFF0000FFFFF80FFFFF80001FFFFE0D8
:1038A0003FFFFC00003FFFFC0FFFFF000007FFFF92
:1038B00003FFFF800001FFFFE1FFFFE000003FFF8B
:1038C000F87FFFF000000FFFFE1FFFFC000001FF6C
:1038D000FF87FFFF0000007FFFF1FFFFC000001F18
:1038E000FFFC7FFFE0000007FFFF1FFFF800000064
:1038F000FFFFC7FFFE0000003FFFF1FFFF80000059
:103900000FFFFE7FFFE0000003FFFF9FFFF80000B6
:1039100000FFFFE7FFFE0000003FFFF9FFFFC000D0
:10392000000FFFFE7FFFF0000007FFFF9FFFFC007E
:103930000001FFFFE7FFFF0000007FFFF9FFFFE04E
:1039400000003FFFFE3FFFF800001FFFFF8FFFFF5B
:1039500000000FFFFFE3FFFFE00007FFFFF8FFFF9E
:10396000FC0003FFFFFE1FFFFF8003FFFFFF87FF39
:10397000FFFC07FFFFFFE1FFFFFFFFFFFFFFF83F37
:10398000FFFFFFFFFFFFFE0FFFFFFFFFFFFFFF81B6
:10399000FFFFFFFFFFFFFFE03FFFFFFFFFDFFFF83D
:1039A0000FFFFFFFFFF7FFFC01FFFFFFFFF9FFFF26
:1039B000003FFFFFFFFC7FFFC007FFFFFFFE1FFF71
:1039C000F000FFFFFFFF07FFFC001FFFFFFF81FF6D
:1039D000FF0001FFFFFFC0FFFF80001FFFFFC03F90
:1039E000FFE00000FFFF800FFFF8000001FC000374
:1039F000FFFE000000000000FFFF8000000000004C
:103A00007FFFE000000000001FFFF000000000004A
:103A100007FFFC000000000003FFFF0000000000A3
:103A200000FFFF8000000000007FFFE000000000BA
:103A3000003FFFF000000000000FFFFC000000004E
:103A40000007FFFF000000000003FFFF80000000F0
:103A50000001FFFFE00000000000FFFFF000000099
:103A60000000FFFFFC00000000007FFFFE000000E0
:103A70000000FFFFFF0000400001FFFFFFC0001F2C
:103A8000C01FFFFFFFE00007FFFFFFFFFFF0000187
:103A9000FFFFFFFFFFFC00007FFFFFFFFFFE0000B6
:103AA0001FFFFFFFFFFE000007FFFFFFFFFF0000FB
:103AB00001FFFFFFFFFF8000007FFFFFFFFFC0004F
:103AC000001FFFFFFFFFE0000007FFFFFFFFE00018
:103AD0000001FFFFFFFFE00000007FFFFFFFE000AD
:103AE00000001FFFFFFFE000000007FFFFFF800056
:103AF000000001FFFFFF0000000000007C0007FF46
:103B0000003FFF80FFFF83FFFF87FFFF9FFFFF3F17
:103B1000FFFE7FFFFEFFFFFDFFFFFBFFFFF7FFFF45
:103B2000EFFFFF9FFFFF1FFFFE3FFFF83FFFF07F0C
:103B3000FFC03FFF003FF80003000000000000004E
:103B40000000000000000000000000000000000075
:103B50000000000000000000000000000000000065
:103B60000000000000000000000000000000000055
:103B70000000000000000000000000000000000045
:103B80000000000000000000000000000000000035
:103B9000000FF000FFF803FFFC0FFFFC3FFFF87F72
:103BA000FFF9FFFFF3FFFFE7FFFFEFFFFFDFFFFF7F
:103BB000BFFFFF7FFFFEFFFFF9FFFFF1FFFFE3FF06
:103BC000FF83FFFE03FFFC03FFE001FF00000F8007
:103BD000001FFC001FFFC00FFFF807FFFF01FFFFE2
:103BE000E0FFFFF83FFFFE0FFFFFC3FFFFF0FFFF07
:103BF000FC3FFFFF0FFFFFC3FFFFE0FFFFF81FFFCA
:103C0000FE07FFFF00FFFFC03FFFE003FFF0007F64
:103C1000F00000C0000000000000000000000000F4
:103C20000000000000000000000000000000000094
:103C30000000000000000000000000000000000084
:103C40000000000000000000000000000000000074
:103C50000000000000000000000000000000000064
:103C60000000000000000000000000000000000054
:103C70000000000000000000000000000000000044
:103C8000000000000000007FFFE03FFFF80FFFFE94
:103C900003FFFF00FFFFC03FFFF00FFFFC07FFFE29
:103CA00001FFFF807FFFE01FFFF007FFFC03FFFF26
:103CB00000FFFF803FFFE00FFFF803FFFC01FFFF65
:103CC000007FFF801FFFE007FFF801FFFC00FFFF00
:103CD000003FFF800FFFE003FFF801FFFC007FFFC4
:103CE000001FFF8007FFE000000000000000000050
:103CF000000000000000001800000000000000F0BC
:103D000000000000000007E00000000000003FC0CD
:103D1000000000000001FF8000000000000FFF0015
:103D200000000000007FFE000000000003FFFC0018
:103D3000000000001FFFF80000000000FFFFF0007F
:103D400000000007FFFFE0000000003FFFFFC00091
:103D5000000001FFFFFF800000000FFFFFFF0000D9
:103D600000007FFFFFFE00000003FFFFFFF00000E8
:103D7000001FFFFFFF80000000FFFFFFFC000000AE
:103D800007FFFFFFC00000003FFFFFFE0000000133
:103D9000FFFFFFF00000000FFFFFFF800000007F2B
:103DA000FFFFFC00000003FFFFFFE00000001FFF1B
:103DB000FFFE00000000FFFFFFF000000007FFFF14
:103DC000FF800000003FFFFFFC00000001FFFFFF3D
:103DD000E00000000FFFFFFF000000007FFFFFF882
:103DE00000000000FFFFFF8000000001FFFFFC005B
:103DF00000000003FFFFE00000000007FFFF80005D
:103E00000000000FFFFFC0000000001FFFFFF000D8
:103E10000000003FFFFFF8000000007FFFFFFE00F2
:103E2000000000FFFFFFFF000000007FFFFFFF809A
:103E30000000001FFFFFFFE00000000FFFFFFFF08A
:103E400000000007FFFFFFFC00000003FFFFFFFE74
:103E500000000000FFFFFFFF800000007FFFFFFF6A
:103E6000C00000003FFFFFFFE00000000FFFFFFF6A
:103E7000F800000007FFFFFFFC00000003FFFFFF4A
:103E8000FF00000001FFFFFFFF800000007FFFFF39
:103E9000FF800000003FFFFFFF000000001FFFFF4A
:103EA000FE000000000FFFFFFC0000000003FFFF0A
:103EB000F80000000001FFFFF00000000000FFFF1D
:103EC000E000000000007FFFC000000000001FFFB6
:103ED0008000000000000FFF00000000000007FE4F
:103EE00000000000000001FC00000000000000F8DD
:103EF0000000000000000070FFFFFFFFFFFFFFFD5C
:103F0000FFFFFFFFFFFFFFFBFFFFFFFFFFFFFFF7CD
:103F1000FFFFFFFFFFFFFFEFFFFFFFFFFFFFFFDFE1
:103F2000FFFFFFFFFFFFFFBFFFFFFFFFFFFFFF7F61
:103F3000FFFFFFFFFFFFFEFFFFFFFFFFFFFFFDFF94
:103F4000FFFFFFFFFFFFFBFFFFFFFFFFFFFFF7FF8D
:103F5000FFFFFFFFFFFFEFFFFFFFFFFFFFFFDFFFA1
:103F6000FFFFFFFFFFFF80000000000000000000D7
:103F70000000000000000000000000000000000041
:103F80000000000000000000000000000000000031
:103F90000000000000000000000000000000000021
:103FA0000000000000000000000000000000000011
:103FB00000000000000000000000000001FFFFFF03
:103FC000FFFFFFFFFBFFFFFFFFFFFFFFF7FFFFFF0D
:103FD000FFFFFFFFEFFFFFFFFFFFFFFFDFFFFFFF21
:103FE000FFFFFFFFBFFFFFFFFFFFFFFF7FFFFFFFA1
:103FF000FFFFFFFEFFFFFFFFFFFFFFFDFFFFFFFFD4
:10400000FFFFFFFBFFFFFFFFFFFFFFF7FFFFFFFFCC
:10401000FFFFFFEFFFFFFFFFFFFFFFDFFFFFFFFFE0
:10402000FFFFFF8000000000000000018000000092
:1040300000000003C000000000000007E0000000D6
:104040000000000FF00000000000001FF80000005A
:104050000000003FFC0000000000007FFE000000A8
:10406000000000FFFF000000000001FFFF800000D3
:10407000000003FFFFC00000000007FFFFE000009A
:1040800000000FFFFFF0000000001FFFFFF800001E
:1040900000003FFFFFFC000000007FFFFFFE00006C
:1040A00000003FFFFFFF000000001FFFFFFF800038
:1040B00000000FFFFFFFC000000003FFFFFFE00054
:1040C000000001FFFFFFF000000000FFFFFFF8000D
:1040D0000000007FFFFFFC000000003FFFFFFE002C
:1040E0000000001FFFFFFF0000000007FFFFFF8030
:1040F00000000003FFFFFFC000000001FFFFFFE022
:1041000000000000FFFFFFF0000000007FFFFFF84D
:10411000000000003FFFFFFC000000000FFFFFFE5B
:104120000000000007FFFFFC0000000003FFFFF895
:104130000000000001FFFFF00000000001FFFFE0B1
:10414000000000000FFFFFC000000000FFFFFF8025
:1041500000000007FFFFFF000000003FFFFFFE0020
:10416000000003FFFFFFFC0000001FFFFFFFE00057
:104170000001FFFFFFFE0000000FFFFFFFF0000047
:1041800000FFFFFFFF80000007FFFFFFFC000000B3
:104190003FFFFFFFC0000003FFFFFFFE0000001F06
:1041A000FFFFFFF0000001FFFFFFFF8000000FFF97
:1041B000FFFFF8000000FFFFFFFFC0000007FFFF48
:1041C000FFFE0000001FFFFFFFE00000003FFFFFB9
:1041D000FF000000007FFFFFF800000000FFFFFF6E
:1041E000C000000001FFFFFC0000000003FFFFE033
:1041F0000000000007FFFF00000000000FFFF800B4
:10420000000000001FFF8000000000003FFC0000D5
:10421000000000007FE0000000000000FF00000040
:1042200000000001F000000000000003800000001A
:1042300000000000000000000000000000007FFF00
:104240008000000001FFFFFF00000003FFFFFFFCF4
:10425000000003FFFFFFFFE00003FFFFFFFFFF0081
:1042600001FFFFFFFFFFF000FFFFFFFFFFFF007FE9
:10427000FFFFFFFFFFF00FFFFFFFFFFFFF00FFFF4C
:10428000FFFFFFFFF01FFFFFFFFFFFFF01FFFFFF2B
:10429000FFFFFFF03FFFFFFFFFFFFE03FFFFFFFFFA
:1042A000FFFFE07FFFFFFFFFFFFC07FFFF807FFFB7
:1042B000FF80FFFE0001FFFFF80FFE00000FFFFF71
:1042C00001FE000000FFFFE01F0000001FFFFC03D5
:1042D00000000001FFFF80000000003FFFF0000031
:1042E000000007FFFE0000000000FFFFC00000000C
:1042F000001FFFF80000000003FFFF0000000000A7
:104300007FFFE0000000000FFFFC0000000003FF43
:10431000FF80000000007FFFF0000000001FFFFC96
:104320000000000007FFFF8000000001FFFFE00029
:104330000000007FFFFC000000001FFFFF000000E6
:104340000007FFFFE000000003FFFFF8000000008F
:10435000FFFFFE000000003FFFFF800000001FFF86
:10436000FFE000000007FFFFF800000001FFFFFE74
:10437000000000007FFFFF800000001FFFFFC00063
:10438000000007FFFFF000000001FFFFFC0000003D
:10439000003FFFFE000000000FFFFF800000000153
:1043A000FFFFE0000000007FFFF8000000000FFFAB
:1043B000FE0000000001FFFF80000000007FFFE022
:1043C000000000000FFFF80000000001FFFF0000E8
:1043D0000000003FFFE00000000007FFF8000000C1
:1043E0000000FFFF00000000001FFFE000000000D1
:1043F00003FFFC00000000007FFF80000000000FB2
:10440000FFF00000000000000000000000000000BD
:10441000000000000000000000000000000000009C
:10442000000000000000000000000000000000008C
:10443000000000000000000000000000000000007C
:10444000000000000000000000000000000000006C
:1044500000000000000000000FF80000000000074E
:10446000FFC00000000001FFFE00000000007FFF11
:10447000C0000000001FFFFC0000000003FFFFC0A1
:1044800000000000FFFFF8000000001FFFFF000019
:10449000000003FFFFE0000000007FFFFE000000BF
:1044A000000FFFFFC000000001FFFFF80000000048
:1044B0003FFFFE0000000007FFFFC000000000FFFC
:1044C000FFF8000000000FFFFF0000000001FFFFE9
:1044D000C0000000001FFFF00000000001FFFE0010
:1044E000000000001FFF000000000000FF8000002F
:1044F00000000000000000000000000000000000BC
:1045000000000001FFFF00000000000000000000AC
:104510003FFFFFF8000000000000000003FFFFFF66
:10452000FF80000000000000001FFFFFFFFFF00001
:10453000000000000000FFFFFFFFFFFC0000000084
:10454000000003FFFFFFFFFFFF0000000000000F5F
:10455000FFFFFFFFFFFFC000000000003FFFFFFF65
:10456000FFFFFFF000000000007FFFFFFFFFFFFFE5
:10457000F80000000001FFFFFFFFFFFFFFFC00004D
:10458000000003FFFFFFFFFFFFFFFF000000000729
:10459000FFFFFFFFFFFFFFFF800000001FFFFFFE88
:1045A0000000FFFFFFC00000003FFFFFE000000F22
:1045B000FFFFE00000007FFFFE00000003FFFFF0B0
:1045C000000000FFFFF8000000007FFFF80000017E
:1045D000FFFFE0000000003FFFFC000003FFFF8042
:1045E000000000000FFFFC000007FFFF00000000BC
:1045F0000007FFFE000007FFFC000000000001FFB5
:10460000FF00000FFFF8000000000000FFFF0000A7
:104610001FFFF00000000000007FFF80003FFFE070
:104620000000000000007FFFC0003FFFC00000004E
:104630000000003FFFC0007FFF800001FFFF8000FF
:104640001FFFC0007FFF00001FFFFFFC000FFFE007
:1046500000FFFE00007FFFFFFFE00FFFE001FFFC17
:104660000001FFFFFFFFF807FFF001FFFC0007FF5D
:10467000FFFFFFF807FFF003FFF8000FFFFFFFFF4A
:10468000F803FFF003FFF8003FFFFFFFFFF803FF11
:10469000F803FFF0007FFFFFFFFFF801FFF807FFBF
:1046A000E000FFFFFFFFFFF801FFF807FFE001FF59
:1046B000FFFFFFFFF801FFFC0FFFE001FFFFFFFF1F
:1046C000FFF800FFFC0FFFC003FFFFE007FFF8004B
:1046D000FFFC0FFFC007FFFF0001FFF800FFFC1FFA
:1046E000FF800FFFFC0001FFF800FFFC1FFF800FA1
:1046F000FFF80003FFF8007FFC1FFF801FFFF000A2
:1047000003FFF8007FFE1FFF801FFFE00003FFF89C
:10471000007FFE3FFF003FFFC00003FFF8007FFE69
:104720003FFF003FFF800003FFF0007FFE3FFF00E0
:104730003FFF800003FFF0007FFE3FFF003FFF8050
:104740000003FFF0007FFE3FFF007FFF000003FF3C
:10475000F0007FFE7FFE007FFF000003FFF0007F80
:10476000FE7FFE007FFF000003FFF0007FFE7FFE64
:10477000007FFE000003FFF0007FFE7FFE007FFE53
:10478000000003FFF0007FFE7FFE007FFE000003BD
:10479000FFF0007FFE7FFE007FFE000003FFF000C1
:1047A0007FFE7FFE00FFFE000007FFF0007FFC7F22
:1047B000FE00FFFE000007FFF0007FFC7FFE007F91
:1047C000FE000007FFF0007FFC7FFE007FFE000080
:1047D00007FFF000FFFC7FFE007FFE000007FFF0F8
:1047E00000FFFC7FFE007FFE000007FFF000FFF8E7
:1047F0007FFE007FFF00000FFFF000FFF87FFE004C
:104800007FFF00000FFFF001FFF87FFE007FFF0039
:10481000001FFFF001FFF87FFE003FFF80001FFF39
:10482000F003FFF07FFE003FFF80003FFFF003FF3B
:10483000F03FFF003FFFC0007FFFF807FFE03FFFB2
:10484000001FFFE000FFFFF807FFE03FFF001FFF32
:10485000F801FFFFFC1FFFC03FFF001FFFFFFFFF2E
:10486000FFFFFFFFC03FFF800FFFFFFFFFFFFFFFC6
:10487000FF801FFF8007FFFFFFFFFFFFFFFF801F7D
:10488000FF8007FFFFFFFFFFFFFFFF001FFF800309
:10489000FFFFFFFF9FFFFFFE001FFFC001FFFFFFA5
:1048A000FF1FFFFFFC000FFFC000FFFFFFFE0FFF19
:1048B000FFF8000FFFE0007FFFFFFC07FFFFF000A5
:1048C0000FFFE0001FFFFFF003FFFFE00007FFF016
:1048D0000007FFFFC001FFFF800007FFF00001FF9E
:1048E000FF00007FFE000003FFF800001FF800003B
:1048F0000FF0000003FFFC000000000000000000BB
:104900000001FFFE0000000000000000000001FFA9
:10491000FF0000000000000000000000FFFF80001A
:10492000000000000000000000FFFFC000000000C9
:104930000000000000007FFFE00000000000000019
:104940000000003FFFF00000000000000000000039
:104950001FFFFC000000000003800000000FFFFFAD
:1049600000000000001F800000000FFFFFC00000DB
:104970000001FF8000000007FFFFFC0000003FFF78
:104980008000000003FFFFFFC0000FFFFF8000005A
:104990000001FFFFFFFFFFFFFFFF80000000007F1F
:1049A000FFFFFFFFFFFFFF80000000003FFFFFFF52
:1049B000FFFFFFFF80000000001FFFFFFFFFFFFF62
:1049C000FF800000000007FFFFFFFFFFFFFF8000E8
:1049D00000000003FFFFFFFFFFFFFF80000000005B
:1049E000007FFFFFFFFFFFFF8000000000001FFFB0
:1049F000FFFFFFFFFC00000000000007FFFFFFFFBC
:104A0000FFE000000000000000FFFFFFFFFF0000CC
:104A10000000000000000FFFFFFFF000000000009A
:104A2000000000003FFFF800000000000000000050
:104A300000000000000000000000007FFFFFC00039
:104A40000000000000003FFFFFE000000000000049
:104A5000001FFFFFF0000000000000001FFFFFFC30
:104A6000000000000000000FFFFFFE00000000003B
:104A7000000007FFFFFF0000000000000007FFFF2D
:104A8000FFC000000000000003FFFFFFE000000087
:104A900000000001FFFFFFF800000000000001FF20
:104AA000FFFFFC00000000000000FFFFFFFE000011
:104AB00000000000007FFFFFFF80000000000000FA
:104AC0007FFFFFFFC00000000000003FFFFFFFE08E
:104AD0000000000000001FFFFFFFF80000000000C2
:104AE000001FFFF7FFFC0000000000000FFFFBFFAE
:104AF000FE00000000000007FFFCFFFF8000000038
:104B0000000007FFFC7FFFC0000000000003FFFE65
:104B10003FFFE0000000000003FFFF1FFFF8000060
:104B200000000001FFFF87FFFC000000000000FF05
:104B3000FF83FFFE000000000000FFFFC1FFFF80B9
:104B400000000000007FFFE07FFFC00000000000C9
:104B50003FFFE03FFFF000000000003FFFF01FFFBD
:104B6000F800000000001FFFF807FFFC0000000035
:104B7000000FFFFC03FFFF00000000000FFFFC011F
:104B8000FFFF800000000007FFFE007FFFC0000065
:104B9000000003FFFF003FFFF00000000003FFFFE5
:104BA000001FFFF80000000001FFFF800FFFFC0066
:104BB00000000000FFFFC003FFFF0000000000FF37
:104BC000FFC001FFFF80000000007FFFE000FFFF4B
:104BD000C0000000003FFFF0003FFFF000000000B9
:104BE0003FFFF0001FFFF8000000001FFFF8000F5C
:104BF000FFFC000000001FFFFC0003FFFF0000009F
:104C0000000FFFFE0001FFFF8000000007FFFE0015
:104C100000FFFFE000000007FFFF00003FFFF00083
:104C2000000003FFFF80001FFFF800000001FFFFEE
:104C300080000FFFFE00000001FFFFC00003FFFF28
:104C400000000000FFFFE00001FFFF800000007F88
:104C5000FFE00000FFFFE00000007FFFF000007FAA
:104C6000FFF00000003FFFF800001FFFF800000009
:104C70001FFFF800000FFFFE0000001FFFFC0000F8
:104C800007FFFF0000000FFFFFFFFFFFFFFF800097
:104C90000007FFFFFFFFFFFFFFE0000007FFFFFF30
:104CA000FFFFFFFFF0000003FFFFFFFFFFFFFFF824
:104CB000000001FFFFFFFFFFFFFFFE000001FFFFFD
:104CC000FFFFFFFFFFFF000000FFFFFFFFFFFFFFF1
:104CD000FFC00000FFFFFFFFFFFFFFFFE000007FBE
:104CE000FFFFFFFFFFFFFFF000003FFFFFFFFFFFA1
:104CF000FFFFFC00003FFFFFFFFFFFFFFFFE000084
:104D00001FFFFFFFFFFFFFFFFF00000FFFFFFFFF81
:104D1000FFFFFFFFC0000FFFFFFFFFFFFFFFFFE0F0
:104D20000007FFFFFFFFFFFFFFFFF00003FFFFFF94
:104D3000FFFFFFFFFFFC0003FFFFFFFFFFFFFFFF81
:104D4000FE0001FFFFE000000007FFFF0000FFFF83
:104D5000E000000003FFFFC000FFFFF000000001C3
:104D6000FFFFE0007FFFF800000000FFFFF0003FC2
:104D7000FFFC000000003FFFFC003FFFFC000000C4
:104D8000001FFFFE001FFFFE000000000FFFFF00DE
:104D90001FFFFF0000000003FFFFC00FFFFF000028
:104DA000000001FFFFE007FFFF8000000000FFFFA1
:104DB000F807FFFFC0000000003FFFFC03FFFFC03B
:104DC000000000001FFFFE01FFFFE0000000000FD9
:104DD000FFFF81FFFFF00000000007FFFFC0FFFFA3
:104DE000F80000000001FFFFE07FFFF80000000076
:104DF00000FFFFF87FFFFC00000000007FFFFC3F8A
:104E0000FFFE00000000001FFFFE1FFFFE0000006D
:104E100000000FFFFF9FFFFF000000000007FFFFE3
:104E2000CFFFFF800000000001FFFFE0FFFFFFFF5A
:104E3000FC0000000FFFFFFFFFFF800000FFFFFFEF
:104E4000FFFFFF80000FFFFFFFFFFFFF0000FFFFDE
:104E5000FFFFFFFFFC000FFFFFFFFFFFFFF000FF62
:104E6000FFFFFFFFFFFFC00FFFFFFFFFFFFFFE0081
:104E7000FFFFFFFFFFFFFFF00FFFFFFFFFFFFFFF41
:104E800080FFFFFFFFFFFFFFFC0FFFFFFFFFFFFFA4
:104E9000FFC0FFFFFFFFFFFFFFFE0FFFFFFFFFFF52
:104EA000FFFFE0FFFFFFFFFFFFFFFF0FFFFFFFFF21
:104EB000FFFFFFF0FFFFE0000FFFFFFF0FFFFE000F
:104EC000000FFFFFF8FFFFE000003FFFFF8FFFFE36
:104ED000000001FFFFF8FFFFE000000FFFFF8FFF62
:104EE000FE0000007FFFF8FFFFE0000007FFFF8FDC
:104EF000FFFE0000007FFFF8FFFFE0000007FFFF5C
:104F00008FFFFE0000003FFFF8FFFFE0000003FFFF
:104F1000FF8FFFFE0000007FFFF8FFFFE0000007AB
:104F2000FFFF8FFFFE0000007FFFF8FFFFE00000A3
:104F300007FFFF8FFFFE000000FFFFF0FFFFE00014
:104F4000000FFFFF0FFFFE000003FFFFE0FFFFE089
:104F500000007FFFFE0FFFFE00003FFFFFC0FFFFCE
:104F6000FFFFFFFFFFFC0FFFFFFFFFFFFFFF80FFC3
:104F7000FFFFFFFFFFFFF00FFFFFFFFFFFFFFE0040
:104F8000FFFFFFFFFFFFFFC00FFFFFFFFFFFFFF06F
:104F900000FFFFFFFFFFFFF8000FFFFFFFFFFFFE17
:104FA0000000FFFFFFFFFFFFFC000FFFFFFFFFFF01
:104FB000FFF800FFFFFFFFFFFFFFE00FFFFFFFFF16
:104FC000FFFFFF00FFFFFFFFFFFFFFFC0FFFFFFFE3
:104FD000FFFFFFFFE0FFFFFFFFFFFFFFFF0FFFFFF0
:104FE000FFFFFFFFFFF0FFFFE00001FFFFFF8FFF6C
:104FF000FE000007FFFFF8FFFFE000001FFFFFCFEC
:10500000FFFE000000FFFFFCFFFFE0000007FFFFC6
:10501000EFFFFE0000003FFFFEFFFFE0000001FF8A
:10502000FFEFFFFE0000001FFFFEFFFFE00000019A
:10503000FFFFEFFFFE0000001FFFFFFFFFE000008B
:1050400000FFFFFFFFFE0000000FFFFFFFFFE0007B
:105050000000FFFFFFFFFE0000001FFFFFFFFFE05B
:10506000000001FFFFFFFFFE0000001FFFFFFFFF2A
:10507000E0000001FFFFEFFFFE0000003FFFFEFF2A
:10508000FFE0000003FFFFEFFFFE0000007FFFFED8
:10509000FFFFE000000FFFFFEFFFFE000003FFFF38
:1050A000FCFFFFE00000FFFFFFCFFFFFFFFFFFFF60
:1050B000FFFCFFFFFFFFFFFFFFFF8FFFFFFFFFFF73
:1050C000FFFFF8FFFFFFFFFFFFFFFF0FFFFFFFFFE7
:1050D000FFFFFFE0FFFFFFFFFFFFFFFE0FFFFFFFF0
:1050E000FFFFFFFFC0FFFFFFFFFFFFFFF80FFFFF06
:1050F000FFFFFFFFFF00FFFFFFFFFFFFFFE00FFFCE
:10510000FFFFFFFFFFF800FFFFFFFFFFFFFF000FA4
:10511000FFFFFFFFFFFFC000FFFFFFFFFFFFE000FB
:105120000FFFFFFFFFFFF80000FFFFFFFFFFF00092
:105130000000000000000000000000000000000F60
:10514000FFF0000000000001FFFFFF8000000000F2
:105150000FFFFFFFF8000000007FFFFFFFFF0000D0
:105160000001FFFFFFFFFFC0000007FFFFFFFFFF81
:10517000F800000FFFFFFFFFFFFC00003FFFFFFFF5
:10518000FFFFFC00007FFFFFFFFFFFFC0000FFFFB1
:10519000FFFFFFFFF80001FFFFFFFFFFFFF8000325
:1051A000FFFFFFFFFFFFF0000FFFFFFFFFFFFFF01C
:1051B000000FFFFFFFFFFFFFF0001FFFFFFFFFFFDC
:1051C000FFE0003FFFFFFFFFFFFFE0007FFFFFFE6C
:1051D000007FFFC0007FFFFFF00007FFC000FFFF60
:1051E000FF800000FFC000FFFFFF0000001F8001E4
:1051F000FFFFFC000000078003FFFFF80000000134
:105200008003FFFFF0000000000003FFFFE000004C
:1052100000000007FFFFE0000000000007FFFFC0E4
:1052200000000000000FFFFFC000000000000FFFA3
:10523000FF8000000000000FFFFF000000000000E2
:105240001FFFFF0000000000001FFFFF0000000024
:1052500000001FFFFE0000000000001FFFFE000016
:10526000000000003FFFFE0000000000003FFFFCC8
:105270000000000000003FFFFC0000000000003FB5
:10528000FFFC0000000000003FFFFC0000000000E9
:10529000007FFFFC0000000000007FFFF80000001E
:1052A0000000007FFFF80000000000007FFFF80012
:1052B00000000000007FFFF80000000000007FFFFA
:1052C000F80000000000007FFFF800000000000070
:1052D0007FFFF80000000000007FFFF800000000E2
:1052E00000007FFFF80000000000007FFFF80000D2
:1052F000000000007FFFF80000000000007FFFF8C2
:105300000000000000007FFFF80000000000007FA8
:10531000FFF80000000000007FFFFC00000000001C
:10532000007FFFFC0000000000007FFFFC00000089
:105330000000003FFFFC0000000000003FFFFC00F9
:1053400000000000003FFFFC0000000000003FFFE5
:10535000FC0000000000003FFFFC00000000000017
:105360003FFFFE0000000000001FFFFE00000000E5
:1053700000001FFFFF0000000000001FFFFF0000F3
:10538000000000001FFFFF8000000000001FFFFF63
:105390008000000000000FFFFF8000000000000FF1
:1053A000FFFFC0000000000007FFFFC0000000007A
:1053B0000007FFFFE0000000000007FFFFF800000B
:1053C00000000003FFFFFC000000000003FFFFFEE1
:1053D000000000006001FFFFFF00000003E001FF8C
:1053E000FFFFC000003FE000FFFFFFFC0003FFE005
:1053F000007FFFFFFFE3FFFFE0007FFFFFFFFFFFF6
:10540000FFE0003FFFFFFFFFFFFFE0001FFFFFFF88
:10541000FFFFFFE0001FFFFFFFFFFFFFE0000FFFA8
:10542000FFFFFFFFFFE00003FFFFFFFFFFFFE000C4
:1054300001FFFFFFFFFFFFE00000FFFFFFFFFFFF97
:10544000E000007FFFFFFFFFFFE000003FFFFFFFE6
:10545000FFFFE000000FFFFFFFFFFFE0000003FF82
:10546000FFFFFFFFC0000000FFFFFFFFFE00000086
:10547000001FFFFFFFF00000000001FFFFFF000022
:10548000FFFFFFFFC00000000007FFFFFFFFFE005F
:105490000000003FFFFFFFFFFF00000001FFFFFFD4
:1054A000FFFFFF0000000FFFFFFFFFFFFF000000F6
:1054B0007FFFFFFFFFFFFE000003FFFFFFFFFFFF77
:1054C000FC00001FFFFFFFFFFFFFF80000FFFFFFD2
:1054D000FFFFFFFFE00007FFFFFFFFFFFFFF800070
:1054E0003FFFFFFFFFFFFFFF0001FFFFFFFFFFFF89
:1054F000FFFC000FFFFFFFFFFFFFFFF0007FFFFF3C
:10550000FFFFFFFFFFC003FFFFFFFFFFFFFFFF00E5
:105510001FFFFFFFFFFFFFFFF800FFFFE0007FFF1F
:10552000FFFFE007FFFF00000FFFFFFF803FFFF8D6
:1055300000000FFFFFFE01FFFFC000001FFFFFF094
:105540000FFFFE0000007FFFFFC07FFFF0000001A3
:10555000FFFFFE03FFFF80000003FFFFF81FFFFCBB
:105560000000000FFFFFC0FFFFE00000003FFFFF53
:1055700007FFFF00000001FFFFF83FFFF8000000F9
:1055800007FFFFE1FFFFC00000003FFFFF0FFFFE2E
:1055900000000000FFFFF87FFFF000000007FFFFA2
:1055A000E3FFFF800000001FFFFF1FFFFC00000063
:1055B00000FFFFF8FFFFE000000003FFFFC7FFFF51
:1055C000000000001FFFFF3FFFF800000000FFFF8A
:1055D000F9FFFFC000000007FFFFCFFFFE00000043
:1055E000001FFFFE7FFFF000000000FFFFF3FFFF42
:1055F0008000000007FFFF9FFFFC000000003FFF4E
:10560000FCFFFFE000000001FFFFE7FFFF000000DC
:10561000000FFFFFBFFFF8000000007FFFFDFFFF4E
:10562000C000000003FFFFEFFFFE000000000FFFBF
:10563000FF7FFFF0000000007FFFFBFFFF80000006
:105640000003FFFFDFFFFC000000003FFFFEFFFF45
:10565000E000000001FFFFF7FFFF000000000FFF68
:10566000FF3FFFF8000000007FFFF9FFFFC00000D0
:105670000003FFFFCFFFFE000000001FFFFE7FFFC3
:10568000F000000000FFFFF3FFFF800000000FFFAD
:10569000FF9FFFFC000000007FFFFCFFFFE0000019
:1056A0000003FFFFE7FFFF000000001FFFFF3FFFB9
:1056B000F800000000FFFFF1FFFFC00000000FFF37
:1056C000FF8FFFFE000000007FFFFC7FFFF0000067
:1056D0000007FFFFC3FFFF800000003FFFFE1FFF2A
:1056E000FC00000003FFFFF0FFFFE00000001FFFD1
:1056F000FF87FFFF00000001FFFFF83FFFF80000F9
:10570000000FFFFFC1FFFFC0000000FFFFFC0FFF05
:10571000FE0000000FFFFFE07FFFF0000001FFFF31
:10572000FE03FFFF8000001FFFFFF01FFFFC0000D3
:1057300003FFFFFF00FFFFE000003FFFFFF807FF50
:10574000FF000007FFFFFF803FFFF8000FFFFFFF94
:10575000F801FFFFFFFFFFFFFFFF800FFFFFFFFFCD
:10576000FFFFFFFC007FFFFFFFFFFFFFFFC003FF06
:10577000FFFFFFFFFFFFFC001FFFFFFFFFFFFFFF1B
:10578000C000FFFFFFFFFFFFFFFC0007FFFFFFFF61
:10579000FFFFFF80003FFFFFFFFFFFFFF80001FF5B
:1057A000FFFFFFFFFFFF80000FFFFFFFFFFFFFF086
:1057B00000007FFFFFFFFFFFFE000003FFFFFFFF72
:1057C000FFFFC000001FFFFFFFFFFFF8000000FF0A
:1057D000FFFFFFFFFE00000007FFFFFFFFFF0000CD
:1057E00000003FFFFFFFFF0000000000FFFFFFFF82
:1057F000FFFFFFFFFFFFFFFFFFFFFFFFFFFFFFFFB9
:10580000FFFFFFFFFFFFFFFFFFFFFFFFFFFFFFFFA8
:10581000FFFFFFFFFFFFFFFFFFFFFFFFFFFFFFFF98
:10582000FFFFFFFFFFFFFFFFFFFFFFFFFFFFFFFF88
:10583000FFFFFFFFFFFFFFFFFFFFFFFFFFFFFFFF78
:10584000FFFFFFFFFFFFFFFFFFFFFFFFFFFFFFFF68
:10585000FFFFFFFFFFFFFFFFE000000007FFFF006B
:105860000000003FFFF800000001FFFFC000000043
:105870000FFFFE000000007FFFF000000003FFFFAD
:10588000800000001FFFFC00000000FFFFE00000A0
:105890000007FFFF000000003FFFF800000001FFCD
:1058A000FFC00000000FFFFE000000007FFFF000BF
:1058B000000003FFFF800000001FFFFC000000004D
:1058C000FFFFE000000007FFFF000000003FFFF8BF
:1058D00000000001FFFFC00000000FFFFFFFFFFFFF
:1058E000FC7FFFFFFFFFFFE3FFFFFFFFFFFF1FFF47
:1058F000FFFFFFFFF8FFFFFFFFFFFFC7FFFFFFFFF7
:10590000FFFE3FFFFFFFFFFFF1FFFFFFFFFFFF8FE6
:10591000FFFFFFFFFFFC7FFFFFFFFFFFE3FFFFFF36
:10592000FFFFFF1FFFFFFFFFFFF8FFFFFFFFFFFF6E
:10593000C7FFFFFFFFFFFE3FFFFFFFFFFFF1FFFF7E
:10594000FFFFFFFF8FFFFE000000007FFFF0000061
:105950000003FFFF800000001FFFFC00000000FFAD
:10596000FFE000000007FFFF000000003FFFF8001D
:10597000000001FFFFC00000000FFFFE000000005C
:105980007FFFF000000003FFFF800000001FFFFC0E
:1059900000000000FFFFE000000007FFFF00000024
:1059A000003FFFF800000001FFFFC00000000FFFF4
:1059B000FE000000007FFFF000000003FFFF8000FA
:1059C00000001FFFFC00000000FFFFE000000007D8
:1059D000FFFF000000003FFFF800000001FFFFFF95
:1059E000FFFFFFFFFFFFFFFFFFFFFFFFFFFFFFFFC7
:1059F000FFFFFFFFFFFFFFFFFFFFFFFFFFFFFFFFB7
:105A0000FFFFFFFFFFFFFFFFFFFFFFFFFFFFFFFFA6
:105A1000FFFFFFFFFFFFFFFFFFFFFFFFFFFFFFFF96
:105A2000FFFFFFFFFFFFFFFFFFFFFFFFFFFFFFFF86
:105A3000FFFFFFFFFFFFFFFFFFFFFFFFFFFFFFFF76
:105A4000FFFFFFFFFFFFFEFFFFFFFFFFFFF7FFFF6F
:105A5000FFFFFFFFBFFFFFFFFFFFFDFFFFFFFFFF98
:105A6000FFEFFFFFFFFFFFFF7FFFFFFFFFFFFBFFDA
:105A7000FFFFFFFFFFDFFFFFFFFFFFFEFFFFFFFF57
:105A8000FFFFF7FFFFFFFFFFFFBFFFFFFFFFFFFD70
:105A9000FFFFFFFFFFFFEFFFFFFFFFFFFF7FFFFFA6
:105AA000FFFFFFFBFFFFFFFFFFFFDFFFFFFFFFFF2A
:105AB000FEFFFFE000000007FFFF000000003FFFC7
:105AC000F800000001FFFFC00000000FFFFE000013
:105AD00000007FFFF000000003FFFF800000001FB8
